{
  "address": "0xfcBA2B3fa587c46A0F3158b43cC020c5026b53A8",
  "abi": [
    {
      "inputs": [
        {
          "internalType": "string",
          "name": "_name",
          "type": "string"
        },
        {
          "internalType": "string",
          "name": "_symbol",
          "type": "string"
        },
        {
          "internalType": "address",
          "name": "_principalToken",
          "type": "address"
        },
        {
          "internalType": "address",
          "name": "_lzEndpoint",
          "type": "address"
        },
        {
          "internalType": "address",
          "name": "_delegate",
          "type": "address"
        },
        {
          "components": [
            {
              "internalType": "uint256",
              "name": "mintDailyLimit",
              "type": "uint256"
            },
            {
              "internalType": "uint256",
              "name": "globalMintLimit",
              "type": "uint256"
            },
            {
              "internalType": "uint256",
              "name": "burnDailyLimit",
              "type": "uint256"
            },
            {
              "internalType": "uint256",
              "name": "globalBurnLimit",
              "type": "uint256"
            },
            {
              "internalType": "address",
              "name": "feesRecipient",
              "type": "address"
            },
            {
              "internalType": "uint16",
              "name": "feesRate",
              "type": "uint16"
            },
            {
              "internalType": "bool",
              "name": "isIsolateMode",
              "type": "bool"
            }
          ],
          "internalType": "struct BridgeableToken.ConfigParams",
          "name": "_config",
          "type": "tuple"
        }
      ],
      "stateMutability": "nonpayable",
      "type": "constructor"
    },
    {
      "inputs": [
        {
          "internalType": "address",
          "name": "target",
          "type": "address"
        }
      ],
      "name": "AddressEmptyCode",
      "type": "error"
    },
    {
      "inputs": [
        {
          "internalType": "address",
          "name": "account",
          "type": "address"
        }
      ],
      "name": "AddressInsufficientBalance",
      "type": "error"
    },
    {
      "inputs": [],
      "name": "AddressZero",
      "type": "error"
    },
    {
      "inputs": [],
      "name": "BurnDailyLimitReached",
      "type": "error"
    },
    {
      "inputs": [
        {
          "internalType": "address",
          "name": "spender",
          "type": "address"
        },
        {
          "internalType": "uint256",
          "name": "allowance",
          "type": "uint256"
        },
        {
          "internalType": "uint256",
          "name": "needed",
          "type": "uint256"
        }
      ],
      "name": "ERC20InsufficientAllowance",
      "type": "error"
    },
    {
      "inputs": [
        {
          "internalType": "address",
          "name": "sender",
          "type": "address"
        },
        {
          "internalType": "uint256",
          "name": "balance",
          "type": "uint256"
        },
        {
          "internalType": "uint256",
          "name": "needed",
          "type": "uint256"
        }
      ],
      "name": "ERC20InsufficientBalance",
      "type": "error"
    },
    {
      "inputs": [
        {
          "internalType": "address",
          "name": "approver",
          "type": "address"
        }
      ],
      "name": "ERC20InvalidApprover",
      "type": "error"
    },
    {
      "inputs": [
        {
          "internalType": "address",
          "name": "receiver",
          "type": "address"
        }
      ],
      "name": "ERC20InvalidReceiver",
      "type": "error"
    },
    {
      "inputs": [
        {
          "internalType": "address",
          "name": "sender",
          "type": "address"
        }
      ],
      "name": "ERC20InvalidSender",
      "type": "error"
    },
    {
      "inputs": [
        {
          "internalType": "address",
          "name": "spender",
          "type": "address"
        }
      ],
      "name": "ERC20InvalidSpender",
      "type": "error"
    },
    {
      "inputs": [],
      "name": "EnforcedPause",
      "type": "error"
    },
    {
      "inputs": [],
      "name": "ExpectedPause",
      "type": "error"
    },
    {
      "inputs": [],
      "name": "FailedInnerCall",
      "type": "error"
    },
    {
      "inputs": [],
      "name": "GlobalBurnLimitReached",
      "type": "error"
    },
    {
      "inputs": [],
      "name": "GlobalLimitOverFlow",
      "type": "error"
    },
    {
      "inputs": [],
      "name": "InvalidDelegate",
      "type": "error"
    },
    {
      "inputs": [],
      "name": "InvalidEndpointCall",
      "type": "error"
    },
    {
      "inputs": [],
      "name": "InvalidLocalDecimals",
      "type": "error"
    },
    {
      "inputs": [],
      "name": "InvalidMsgLength",
      "type": "error"
    },
    {
      "inputs": [
        {
          "internalType": "bytes",
          "name": "options",
          "type": "bytes"
        }
      ],
      "name": "InvalidOptions",
      "type": "error"
    },
    {
      "inputs": [],
      "name": "IsolateModeLimitReach",
      "type": "error"
    },
    {
      "inputs": [],
      "name": "LzTokenUnavailable",
      "type": "error"
    },
    {
      "inputs": [],
      "name": "MaxFeesRateExceeded",
      "type": "error"
    },
    {
      "inputs": [],
      "name": "MintLimitExceeded",
      "type": "error"
    },
    {
      "inputs": [
        {
          "internalType": "uint32",
          "name": "eid",
          "type": "uint32"
        }
      ],
      "name": "NoPeer",
      "type": "error"
    },
    {
      "inputs": [
        {
          "internalType": "uint256",
          "name": "msgValue",
          "type": "uint256"
        }
      ],
      "name": "NotEnoughNative",
      "type": "error"
    },
    {
      "inputs": [
        {
          "internalType": "address",
          "name": "addr",
          "type": "address"
        }
      ],
      "name": "OnlyEndpoint",
      "type": "error"
    },
    {
      "inputs": [
        {
          "internalType": "uint32",
          "name": "eid",
          "type": "uint32"
        },
        {
          "internalType": "bytes32",
          "name": "sender",
          "type": "bytes32"
        }
      ],
      "name": "OnlyPeer",
      "type": "error"
    },
    {
      "inputs": [],
      "name": "OnlySelf",
      "type": "error"
    },
    {
      "inputs": [
        {
          "internalType": "address",
          "name": "owner",
          "type": "address"
        }
      ],
      "name": "OwnableInvalidOwner",
      "type": "error"
    },
    {
      "inputs": [
        {
          "internalType": "address",
          "name": "account",
          "type": "address"
        }
      ],
      "name": "OwnableUnauthorizedAccount",
      "type": "error"
    },
    {
      "inputs": [],
      "name": "ReentrancyGuardReentrantCall",
      "type": "error"
    },
    {
      "inputs": [
        {
          "internalType": "address",
          "name": "token",
          "type": "address"
        }
      ],
      "name": "SafeERC20FailedOperation",
      "type": "error"
    },
    {
      "inputs": [
        {
          "internalType": "bytes",
          "name": "result",
          "type": "bytes"
        }
      ],
      "name": "SimulationResult",
      "type": "error"
    },
    {
      "inputs": [
        {
          "internalType": "uint256",
          "name": "amountLD",
          "type": "uint256"
        },
        {
          "internalType": "uint256",
          "name": "minAmountLD",
          "type": "uint256"
        }
      ],
      "name": "SlippageExceeded",
      "type": "error"
    },
    {
      "anonymous": false,
      "inputs": [
        {
          "indexed": true,
          "internalType": "address",
          "name": "owner",
          "type": "address"
        },
        {
          "indexed": true,
          "internalType": "address",
          "name": "spender",
          "type": "address"
        },
        {
          "indexed": false,
          "internalType": "uint256",
          "name": "value",
          "type": "uint256"
        }
      ],
      "name": "Approval",
      "type": "event"
    },
    {
      "anonymous": false,
      "inputs": [
        {
          "indexed": true,
          "internalType": "bytes32",
          "name": "guid",
          "type": "bytes32"
        },
        {
          "indexed": false,
          "internalType": "uint32",
          "name": "srcEid",
          "type": "uint32"
        },
        {
          "indexed": true,
          "internalType": "address",
          "name": "from",
          "type": "address"
        },
        {
          "indexed": true,
          "internalType": "address",
          "name": "to",
          "type": "address"
        },
        {
          "indexed": false,
          "internalType": "uint256",
          "name": "amountReceivedLD",
          "type": "uint256"
        },
        {
          "indexed": false,
          "internalType": "uint256",
          "name": "oftReceived",
          "type": "uint256"
        },
        {
          "indexed": false,
          "internalType": "uint256",
          "name": "feeAmountLD",
          "type": "uint256"
        }
      ],
      "name": "BridgeableTokenReceived",
      "type": "event"
    },
    {
      "anonymous": false,
      "inputs": [
        {
          "indexed": true,
          "internalType": "bytes32",
          "name": "guid",
          "type": "bytes32"
        },
        {
          "indexed": false,
          "internalType": "uint32",
          "name": "dstEid",
          "type": "uint32"
        },
        {
          "indexed": true,
          "internalType": "address",
          "name": "from",
          "type": "address"
        },
        {
          "indexed": true,
          "internalType": "address",
          "name": "to",
          "type": "address"
        },
        {
          "indexed": false,
          "internalType": "uint256",
          "name": "nativeFeeAmount",
          "type": "uint256"
        },
        {
          "indexed": false,
          "internalType": "bool",
          "name": "isPrincipalTokenBurned",
          "type": "bool"
        },
        {
          "indexed": false,
          "internalType": "uint256",
          "name": "amountSentLD",
          "type": "uint256"
        },
        {
          "indexed": false,
          "internalType": "uint256",
          "name": "amountReceive",
          "type": "uint256"
        }
      ],
      "name": "BridgeableTokenSent",
      "type": "event"
    },
    {
      "anonymous": false,
      "inputs": [
        {
          "indexed": false,
          "internalType": "uint256",
          "name": "burnableDailyLimit",
          "type": "uint256"
        }
      ],
      "name": "BurnableDailyLimitSet",
      "type": "event"
    },
    {
      "anonymous": false,
      "inputs": [
        {
          "components": [
            {
              "internalType": "uint32",
              "name": "eid",
              "type": "uint32"
            },
            {
              "internalType": "uint16",
              "name": "msgType",
              "type": "uint16"
            },
            {
              "internalType": "bytes",
              "name": "options",
              "type": "bytes"
            }
          ],
          "indexed": false,
          "internalType": "struct EnforcedOptionParam[]",
          "name": "_enforcedOptions",
          "type": "tuple[]"
        }
      ],
      "name": "EnforcedOptionSet",
      "type": "event"
    },
    {
      "anonymous": false,
      "inputs": [
        {
          "indexed": false,
          "internalType": "uint16",
          "name": "feesRate",
          "type": "uint16"
        }
      ],
      "name": "FeesRateSet",
      "type": "event"
    },
    {
      "anonymous": false,
      "inputs": [
        {
          "indexed": false,
          "internalType": "address",
          "name": "feesRecipient",
          "type": "address"
        }
      ],
      "name": "FeesRecipientSet",
      "type": "event"
    },
    {
      "anonymous": false,
      "inputs": [
        {
          "indexed": false,
          "internalType": "uint256",
          "name": "globalBurnLimit",
          "type": "uint256"
        }
      ],
      "name": "GlobalBurnLimitSet",
      "type": "event"
    },
    {
      "anonymous": false,
      "inputs": [
        {
          "indexed": false,
          "internalType": "uint256",
          "name": "globalMintLimit",
          "type": "uint256"
        }
      ],
      "name": "GlobalMintLimitSet",
      "type": "event"
    },
    {
      "anonymous": false,
      "inputs": [
        {
          "indexed": false,
          "internalType": "bool",
          "name": "isolateMode",
          "type": "bool"
        }
      ],
      "name": "IsolateModeToggled",
      "type": "event"
    },
    {
      "anonymous": false,
      "inputs": [
        {
          "indexed": false,
          "internalType": "uint256",
          "name": "mintableDailyLimit",
          "type": "uint256"
        }
      ],
      "name": "MintableDailyLimitSet",
      "type": "event"
    },
    {
      "anonymous": false,
      "inputs": [
        {
          "indexed": false,
          "internalType": "address",
          "name": "inspector",
          "type": "address"
        }
      ],
      "name": "MsgInspectorSet",
      "type": "event"
    },
    {
      "anonymous": false,
      "inputs": [
        {
          "indexed": true,
          "internalType": "bytes32",
          "name": "guid",
          "type": "bytes32"
        },
        {
          "indexed": false,
          "internalType": "uint32",
          "name": "srcEid",
          "type": "uint32"
        },
        {
          "indexed": true,
          "internalType": "address",
          "name": "toAddress",
          "type": "address"
        },
        {
          "indexed": false,
          "internalType": "uint256",
          "name": "amountReceivedLD",
          "type": "uint256"
        }
      ],
      "name": "OFTReceived",
      "type": "event"
    },
    {
      "anonymous": false,
      "inputs": [
        {
          "indexed": true,
          "internalType": "bytes32",
          "name": "guid",
          "type": "bytes32"
        },
        {
          "indexed": false,
          "internalType": "uint32",
          "name": "dstEid",
          "type": "uint32"
        },
        {
          "indexed": true,
          "internalType": "address",
          "name": "fromAddress",
          "type": "address"
        },
        {
          "indexed": false,
          "internalType": "uint256",
          "name": "amountSentLD",
          "type": "uint256"
        },
        {
          "indexed": false,
          "internalType": "uint256",
          "name": "amountReceivedLD",
          "type": "uint256"
        }
      ],
      "name": "OFTSent",
      "type": "event"
    },
    {
      "anonymous": false,
      "inputs": [
        {
          "indexed": false,
          "internalType": "address",
          "name": "caller",
          "type": "address"
        },
        {
          "indexed": false,
          "internalType": "uint256",
          "name": "amountSwapped",
          "type": "uint256"
        },
        {
          "indexed": false,
          "internalType": "uint256",
          "name": "principalTokenAmountReceived",
          "type": "uint256"
        },
        {
          "indexed": false,
          "internalType": "uint256",
          "name": "feeAmount",
          "type": "uint256"
        }
      ],
      "name": "OFTSwapped",
      "type": "event"
    },
    {
      "anonymous": false,
      "inputs": [
        {
          "indexed": true,
          "internalType": "address",
          "name": "previousOwner",
          "type": "address"
        },
        {
          "indexed": true,
          "internalType": "address",
          "name": "newOwner",
          "type": "address"
        }
      ],
      "name": "OwnershipTransferred",
      "type": "event"
    },
    {
      "anonymous": false,
      "inputs": [
        {
          "indexed": false,
          "internalType": "address",
          "name": "account",
          "type": "address"
        }
      ],
      "name": "Paused",
      "type": "event"
    },
    {
      "anonymous": false,
      "inputs": [
        {
          "indexed": false,
          "internalType": "uint32",
          "name": "eid",
          "type": "uint32"
        },
        {
          "indexed": false,
          "internalType": "bytes32",
          "name": "peer",
          "type": "bytes32"
        }
      ],
      "name": "PeerSet",
      "type": "event"
    },
    {
      "anonymous": false,
      "inputs": [
        {
          "indexed": false,
          "internalType": "address",
          "name": "preCrimeAddress",
          "type": "address"
        }
      ],
      "name": "PreCrimeSet",
      "type": "event"
    },
    {
      "anonymous": false,
      "inputs": [
        {
          "indexed": true,
          "internalType": "address",
          "name": "from",
          "type": "address"
        },
        {
          "indexed": true,
          "internalType": "address",
          "name": "to",
          "type": "address"
        },
        {
          "indexed": false,
          "internalType": "uint256",
          "name": "value",
          "type": "uint256"
        }
      ],
      "name": "Transfer",
      "type": "event"
    },
    {
      "anonymous": false,
      "inputs": [
        {
          "indexed": false,
          "internalType": "address",
          "name": "account",
          "type": "address"
        }
      ],
      "name": "Unpaused",
      "type": "event"
    },
    {
      "inputs": [],
      "name": "SEND",
      "outputs": [
        {
          "internalType": "uint16",
          "name": "",
          "type": "uint16"
        }
      ],
      "stateMutability": "view",
      "type": "function"
    },
    {
      "inputs": [],
      "name": "SEND_AND_CALL",
      "outputs": [
        {
          "internalType": "uint16",
          "name": "",
          "type": "uint16"
        }
      ],
      "stateMutability": "view",
      "type": "function"
    },
    {
      "inputs": [
        {
          "components": [
            {
              "internalType": "uint32",
              "name": "srcEid",
              "type": "uint32"
            },
            {
              "internalType": "bytes32",
              "name": "sender",
              "type": "bytes32"
            },
            {
              "internalType": "uint64",
              "name": "nonce",
              "type": "uint64"
            }
          ],
          "internalType": "struct Origin",
          "name": "origin",
          "type": "tuple"
        }
      ],
      "name": "allowInitializePath",
      "outputs": [
        {
          "internalType": "bool",
          "name": "",
          "type": "bool"
        }
      ],
      "stateMutability": "view",
      "type": "function"
    },
    {
      "inputs": [
        {
          "internalType": "address",
          "name": "owner",
          "type": "address"
        },
        {
          "internalType": "address",
          "name": "spender",
          "type": "address"
        }
      ],
      "name": "allowance",
      "outputs": [
        {
          "internalType": "uint256",
          "name": "",
          "type": "uint256"
        }
      ],
      "stateMutability": "view",
      "type": "function"
    },
    {
      "inputs": [],
      "name": "approvalRequired",
      "outputs": [
        {
          "internalType": "bool",
          "name": "",
          "type": "bool"
        }
      ],
      "stateMutability": "pure",
      "type": "function"
    },
    {
      "inputs": [
        {
          "internalType": "address",
          "name": "spender",
          "type": "address"
        },
        {
          "internalType": "uint256",
          "name": "value",
          "type": "uint256"
        }
      ],
      "name": "approve",
      "outputs": [
        {
          "internalType": "bool",
          "name": "",
          "type": "bool"
        }
      ],
      "stateMutability": "nonpayable",
      "type": "function"
    },
    {
      "inputs": [
        {
          "internalType": "address",
          "name": "account",
          "type": "address"
        }
      ],
      "name": "balanceOf",
      "outputs": [
        {
          "internalType": "uint256",
          "name": "",
          "type": "uint256"
        }
      ],
      "stateMutability": "view",
      "type": "function"
    },
    {
      "inputs": [
        {
          "internalType": "uint32",
          "name": "_eid",
          "type": "uint32"
        },
        {
          "internalType": "uint16",
          "name": "_msgType",
          "type": "uint16"
        },
        {
          "internalType": "bytes",
          "name": "_extraOptions",
          "type": "bytes"
        }
      ],
      "name": "combineOptions",
      "outputs": [
        {
          "internalType": "bytes",
          "name": "",
          "type": "bytes"
        }
      ],
      "stateMutability": "view",
      "type": "function"
    },
    {
      "inputs": [],
      "name": "decimalConversionRate",
      "outputs": [
        {
          "internalType": "uint256",
          "name": "",
          "type": "uint256"
        }
      ],
      "stateMutability": "view",
      "type": "function"
    },
    {
      "inputs": [],
      "name": "decimals",
      "outputs": [
        {
          "internalType": "uint8",
          "name": "",
          "type": "uint8"
        }
      ],
      "stateMutability": "view",
      "type": "function"
    },
    {
      "inputs": [],
      "name": "endpoint",
      "outputs": [
        {
          "internalType": "contract ILayerZeroEndpointV2",
          "name": "",
          "type": "address"
        }
      ],
      "stateMutability": "view",
      "type": "function"
    },
    {
      "inputs": [
        {
          "internalType": "uint32",
          "name": "eid",
          "type": "uint32"
        },
        {
          "internalType": "uint16",
          "name": "msgType",
          "type": "uint16"
        }
      ],
      "name": "enforcedOptions",
      "outputs": [
        {
          "internalType": "bytes",
          "name": "enforcedOption",
          "type": "bytes"
        }
      ],
      "stateMutability": "view",
      "type": "function"
    },
    {
      "inputs": [],
      "name": "getBurnDailyLimit",
      "outputs": [
        {
          "internalType": "uint256",
          "name": "",
          "type": "uint256"
        }
      ],
      "stateMutability": "view",
      "type": "function"
    },
    {
      "inputs": [],
      "name": "getCurrentBurnDailyUsage",
      "outputs": [
        {
          "internalType": "uint256",
          "name": "",
          "type": "uint256"
        }
      ],
      "stateMutability": "view",
      "type": "function"
    },
    {
      "inputs": [],
      "name": "getCurrentMintDailyUsage",
      "outputs": [
        {
          "internalType": "uint256",
          "name": "",
          "type": "uint256"
        }
      ],
      "stateMutability": "view",
      "type": "function"
    },
    {
      "inputs": [],
      "name": "getFeesRate",
      "outputs": [
        {
          "internalType": "uint16",
          "name": "",
          "type": "uint16"
        }
      ],
      "stateMutability": "view",
      "type": "function"
    },
    {
      "inputs": [],
      "name": "getFeesRecipient",
      "outputs": [
        {
          "internalType": "address",
          "name": "",
          "type": "address"
        }
      ],
      "stateMutability": "view",
      "type": "function"
    },
    {
      "inputs": [],
      "name": "getGlobalBurnLimit",
      "outputs": [
        {
          "internalType": "uint256",
          "name": "",
          "type": "uint256"
        }
      ],
      "stateMutability": "view",
      "type": "function"
    },
    {
      "inputs": [],
      "name": "getGlobalMintLimit",
      "outputs": [
        {
          "internalType": "uint256",
          "name": "",
          "type": "uint256"
        }
      ],
      "stateMutability": "view",
      "type": "function"
    },
    {
      "inputs": [],
      "name": "getIsIsolateMode",
      "outputs": [
        {
          "internalType": "bool",
          "name": "",
          "type": "bool"
        }
      ],
      "stateMutability": "view",
      "type": "function"
    },
    {
      "inputs": [],
      "name": "getMaxBurnableAmount",
      "outputs": [
        {
          "internalType": "uint256",
          "name": "",
          "type": "uint256"
        }
      ],
      "stateMutability": "view",
      "type": "function"
    },
    {
      "inputs": [],
      "name": "getMaxMintableAmount",
      "outputs": [
        {
          "internalType": "uint256",
          "name": "",
          "type": "uint256"
        }
      ],
      "stateMutability": "view",
      "type": "function"
    },
    {
      "inputs": [],
      "name": "getMintDailyLimit",
      "outputs": [
        {
          "internalType": "uint256",
          "name": "",
          "type": "uint256"
        }
      ],
      "stateMutability": "view",
      "type": "function"
    },
    {
      "inputs": [],
      "name": "getNetMintedAmount",
      "outputs": [
        {
          "internalType": "int256",
          "name": "",
          "type": "int256"
        }
      ],
      "stateMutability": "view",
      "type": "function"
    },
    {
      "inputs": [],
      "name": "getPrincipalToken",
      "outputs": [
        {
          "internalType": "address",
          "name": "",
          "type": "address"
        }
      ],
      "stateMutability": "view",
      "type": "function"
    },
    {
      "inputs": [
        {
          "components": [
            {
              "internalType": "uint32",
              "name": "srcEid",
              "type": "uint32"
            },
            {
              "internalType": "bytes32",
              "name": "sender",
              "type": "bytes32"
            },
            {
              "internalType": "uint64",
              "name": "nonce",
              "type": "uint64"
            }
          ],
          "internalType": "struct Origin",
          "name": "",
          "type": "tuple"
        },
        {
          "internalType": "bytes",
          "name": "",
          "type": "bytes"
        },
        {
          "internalType": "address",
          "name": "_sender",
          "type": "address"
        }
      ],
      "name": "isComposeMsgSender",
      "outputs": [
        {
          "internalType": "bool",
          "name": "",
          "type": "bool"
        }
      ],
      "stateMutability": "view",
      "type": "function"
    },
    {
      "inputs": [
        {
          "internalType": "uint32",
          "name": "_eid",
          "type": "uint32"
        },
        {
          "internalType": "bytes32",
          "name": "_peer",
          "type": "bytes32"
        }
      ],
      "name": "isPeer",
      "outputs": [
        {
          "internalType": "bool",
          "name": "",
          "type": "bool"
        }
      ],
      "stateMutability": "view",
      "type": "function"
    },
    {
      "inputs": [
        {
          "components": [
            {
              "internalType": "uint32",
              "name": "srcEid",
              "type": "uint32"
            },
            {
              "internalType": "bytes32",
              "name": "sender",
              "type": "bytes32"
            },
            {
              "internalType": "uint64",
              "name": "nonce",
              "type": "uint64"
            }
          ],
          "internalType": "struct Origin",
          "name": "_origin",
          "type": "tuple"
        },
        {
          "internalType": "bytes32",
          "name": "_guid",
          "type": "bytes32"
        },
        {
          "internalType": "bytes",
          "name": "_message",
          "type": "bytes"
        },
        {
          "internalType": "address",
          "name": "_executor",
          "type": "address"
        },
        {
          "internalType": "bytes",
          "name": "_extraData",
          "type": "bytes"
        }
      ],
      "name": "lzReceive",
      "outputs": [],
      "stateMutability": "payable",
      "type": "function"
    },
    {
      "inputs": [
        {
          "components": [
            {
              "components": [
                {
                  "internalType": "uint32",
                  "name": "srcEid",
                  "type": "uint32"
                },
                {
                  "internalType": "bytes32",
                  "name": "sender",
                  "type": "bytes32"
                },
                {
                  "internalType": "uint64",
                  "name": "nonce",
                  "type": "uint64"
                }
              ],
              "internalType": "struct Origin",
              "name": "origin",
              "type": "tuple"
            },
            {
              "internalType": "uint32",
              "name": "dstEid",
              "type": "uint32"
            },
            {
              "internalType": "address",
              "name": "receiver",
              "type": "address"
            },
            {
              "internalType": "bytes32",
              "name": "guid",
              "type": "bytes32"
            },
            {
              "internalType": "uint256",
              "name": "value",
              "type": "uint256"
            },
            {
              "internalType": "address",
              "name": "executor",
              "type": "address"
            },
            {
              "internalType": "bytes",
              "name": "message",
              "type": "bytes"
            },
            {
              "internalType": "bytes",
              "name": "extraData",
              "type": "bytes"
            }
          ],
          "internalType": "struct InboundPacket[]",
          "name": "_packets",
          "type": "tuple[]"
        }
      ],
      "name": "lzReceiveAndRevert",
      "outputs": [],
      "stateMutability": "payable",
      "type": "function"
    },
    {
      "inputs": [
        {
          "components": [
            {
              "internalType": "uint32",
              "name": "srcEid",
              "type": "uint32"
            },
            {
              "internalType": "bytes32",
              "name": "sender",
              "type": "bytes32"
            },
            {
              "internalType": "uint64",
              "name": "nonce",
              "type": "uint64"
            }
          ],
          "internalType": "struct Origin",
          "name": "_origin",
          "type": "tuple"
        },
        {
          "internalType": "bytes32",
          "name": "_guid",
          "type": "bytes32"
        },
        {
          "internalType": "bytes",
          "name": "_message",
          "type": "bytes"
        },
        {
          "internalType": "address",
          "name": "_executor",
          "type": "address"
        },
        {
          "internalType": "bytes",
          "name": "_extraData",
          "type": "bytes"
        }
      ],
      "name": "lzReceiveSimulate",
      "outputs": [],
      "stateMutability": "payable",
      "type": "function"
    },
    {
      "inputs": [],
      "name": "msgInspector",
      "outputs": [
        {
          "internalType": "address",
          "name": "",
          "type": "address"
        }
      ],
      "stateMutability": "view",
      "type": "function"
    },
    {
      "inputs": [],
      "name": "name",
      "outputs": [
        {
          "internalType": "string",
          "name": "",
          "type": "string"
        }
      ],
      "stateMutability": "view",
      "type": "function"
    },
    {
      "inputs": [
        {
          "internalType": "uint32",
          "name": "",
          "type": "uint32"
        },
        {
          "internalType": "bytes32",
          "name": "",
          "type": "bytes32"
        }
      ],
      "name": "nextNonce",
      "outputs": [
        {
          "internalType": "uint64",
          "name": "nonce",
          "type": "uint64"
        }
      ],
      "stateMutability": "view",
      "type": "function"
    },
    {
      "inputs": [],
      "name": "oApp",
      "outputs": [
        {
          "internalType": "address",
          "name": "",
          "type": "address"
        }
      ],
      "stateMutability": "view",
      "type": "function"
    },
    {
      "inputs": [],
      "name": "oAppVersion",
      "outputs": [
        {
          "internalType": "uint64",
          "name": "senderVersion",
          "type": "uint64"
        },
        {
          "internalType": "uint64",
          "name": "receiverVersion",
          "type": "uint64"
        }
      ],
      "stateMutability": "pure",
      "type": "function"
    },
    {
      "inputs": [],
      "name": "oftVersion",
      "outputs": [
        {
          "internalType": "bytes4",
          "name": "interfaceId",
          "type": "bytes4"
        },
        {
          "internalType": "uint64",
          "name": "version",
          "type": "uint64"
        }
      ],
      "stateMutability": "pure",
      "type": "function"
    },
    {
      "inputs": [],
      "name": "owner",
      "outputs": [
        {
          "internalType": "address",
          "name": "",
          "type": "address"
        }
      ],
      "stateMutability": "view",
      "type": "function"
    },
    {
      "inputs": [],
      "name": "pause",
      "outputs": [],
      "stateMutability": "nonpayable",
      "type": "function"
    },
    {
      "inputs": [],
      "name": "paused",
      "outputs": [
        {
          "internalType": "bool",
          "name": "",
          "type": "bool"
        }
      ],
      "stateMutability": "view",
      "type": "function"
    },
    {
      "inputs": [
        {
          "internalType": "uint32",
          "name": "eid",
          "type": "uint32"
        }
      ],
      "name": "peers",
      "outputs": [
        {
          "internalType": "bytes32",
          "name": "peer",
          "type": "bytes32"
        }
      ],
      "stateMutability": "view",
      "type": "function"
    },
    {
      "inputs": [],
      "name": "preCrime",
      "outputs": [
        {
          "internalType": "address",
          "name": "",
          "type": "address"
        }
      ],
      "stateMutability": "view",
      "type": "function"
    },
    {
      "inputs": [
        {
          "components": [
            {
              "internalType": "uint32",
              "name": "dstEid",
              "type": "uint32"
            },
            {
              "internalType": "bytes32",
              "name": "to",
              "type": "bytes32"
            },
            {
              "internalType": "uint256",
              "name": "amountLD",
              "type": "uint256"
            },
            {
              "internalType": "uint256",
              "name": "minAmountLD",
              "type": "uint256"
            },
            {
              "internalType": "bytes",
              "name": "extraOptions",
              "type": "bytes"
            },
            {
              "internalType": "bytes",
              "name": "composeMsg",
              "type": "bytes"
            },
            {
              "internalType": "bytes",
              "name": "oftCmd",
              "type": "bytes"
            }
          ],
          "internalType": "struct SendParam",
          "name": "_sendParam",
          "type": "tuple"
        }
      ],
      "name": "quoteOFT",
      "outputs": [
        {
          "components": [
            {
              "internalType": "uint256",
              "name": "minAmountLD",
              "type": "uint256"
            },
            {
              "internalType": "uint256",
              "name": "maxAmountLD",
              "type": "uint256"
            }
          ],
          "internalType": "struct OFTLimit",
          "name": "oftLimit",
          "type": "tuple"
        },
        {
          "components": [
            {
              "internalType": "int256",
              "name": "feeAmountLD",
              "type": "int256"
            },
            {
              "internalType": "string",
              "name": "description",
              "type": "string"
            }
          ],
          "internalType": "struct OFTFeeDetail[]",
          "name": "oftFeeDetails",
          "type": "tuple[]"
        },
        {
          "components": [
            {
              "internalType": "uint256",
              "name": "amountSentLD",
              "type": "uint256"
            },
            {
              "internalType": "uint256",
              "name": "amountReceivedLD",
              "type": "uint256"
            }
          ],
          "internalType": "struct OFTReceipt",
          "name": "oftReceipt",
          "type": "tuple"
        }
      ],
      "stateMutability": "view",
      "type": "function"
    },
    {
      "inputs": [
        {
          "components": [
            {
              "internalType": "uint32",
              "name": "dstEid",
              "type": "uint32"
            },
            {
              "internalType": "bytes32",
              "name": "to",
              "type": "bytes32"
            },
            {
              "internalType": "uint256",
              "name": "amountLD",
              "type": "uint256"
            },
            {
              "internalType": "uint256",
              "name": "minAmountLD",
              "type": "uint256"
            },
            {
              "internalType": "bytes",
              "name": "extraOptions",
              "type": "bytes"
            },
            {
              "internalType": "bytes",
              "name": "composeMsg",
              "type": "bytes"
            },
            {
              "internalType": "bytes",
              "name": "oftCmd",
              "type": "bytes"
            }
          ],
          "internalType": "struct SendParam",
          "name": "_sendParam",
          "type": "tuple"
        },
        {
          "internalType": "bool",
          "name": "_payInLzToken",
          "type": "bool"
        }
      ],
      "name": "quoteSend",
      "outputs": [
        {
          "components": [
            {
              "internalType": "uint256",
              "name": "nativeFee",
              "type": "uint256"
            },
            {
              "internalType": "uint256",
              "name": "lzTokenFee",
              "type": "uint256"
            }
          ],
          "internalType": "struct MessagingFee",
          "name": "msgFee",
          "type": "tuple"
        }
      ],
      "stateMutability": "view",
      "type": "function"
    },
    {
      "inputs": [],
      "name": "renounceOwnership",
      "outputs": [],
      "stateMutability": "nonpayable",
      "type": "function"
    },
    {
      "inputs": [
        {
          "components": [
            {
              "internalType": "uint32",
              "name": "dstEid",
              "type": "uint32"
            },
            {
              "internalType": "bytes32",
              "name": "to",
              "type": "bytes32"
            },
            {
              "internalType": "uint256",
              "name": "amountLD",
              "type": "uint256"
            },
            {
              "internalType": "uint256",
              "name": "minAmountLD",
              "type": "uint256"
            },
            {
              "internalType": "bytes",
              "name": "extraOptions",
              "type": "bytes"
            },
            {
              "internalType": "bytes",
              "name": "composeMsg",
              "type": "bytes"
            },
            {
              "internalType": "bytes",
              "name": "oftCmd",
              "type": "bytes"
            }
          ],
          "internalType": "struct SendParam",
          "name": "_sendParam",
          "type": "tuple"
        },
        {
          "components": [
            {
              "internalType": "uint256",
              "name": "nativeFee",
              "type": "uint256"
            },
            {
              "internalType": "uint256",
              "name": "lzTokenFee",
              "type": "uint256"
            }
          ],
          "internalType": "struct MessagingFee",
          "name": "_fee",
          "type": "tuple"
        },
        {
          "internalType": "address",
          "name": "_refundAddress",
          "type": "address"
        }
      ],
      "name": "send",
      "outputs": [
        {
          "components": [
            {
              "internalType": "bytes32",
              "name": "guid",
              "type": "bytes32"
            },
            {
              "internalType": "uint64",
              "name": "nonce",
              "type": "uint64"
            },
            {
              "components": [
                {
                  "internalType": "uint256",
                  "name": "nativeFee",
                  "type": "uint256"
                },
                {
                  "internalType": "uint256",
                  "name": "lzTokenFee",
                  "type": "uint256"
                }
              ],
              "internalType": "struct MessagingFee",
              "name": "fee",
              "type": "tuple"
            }
          ],
          "internalType": "struct MessagingReceipt",
          "name": "msgReceipt",
          "type": "tuple"
        },
        {
          "components": [
            {
              "internalType": "uint256",
              "name": "amountSentLD",
              "type": "uint256"
            },
            {
              "internalType": "uint256",
              "name": "amountReceivedLD",
              "type": "uint256"
            }
          ],
          "internalType": "struct OFTReceipt",
          "name": "oftReceipt",
          "type": "tuple"
        }
      ],
      "stateMutability": "payable",
      "type": "function"
    },
    {
      "inputs": [
        {
          "internalType": "uint256",
          "name": "_burnDailyLimit",
          "type": "uint256"
        }
      ],
      "name": "setBurnDailyLimit",
      "outputs": [],
      "stateMutability": "nonpayable",
      "type": "function"
    },
    {
      "inputs": [
        {
          "internalType": "address",
          "name": "_delegate",
          "type": "address"
        }
      ],
      "name": "setDelegate",
      "outputs": [],
      "stateMutability": "nonpayable",
      "type": "function"
    },
    {
      "inputs": [
        {
          "components": [
            {
              "internalType": "uint32",
              "name": "eid",
              "type": "uint32"
            },
            {
              "internalType": "uint16",
              "name": "msgType",
              "type": "uint16"
            },
            {
              "internalType": "bytes",
              "name": "options",
              "type": "bytes"
            }
          ],
          "internalType": "struct EnforcedOptionParam[]",
          "name": "_enforcedOptions",
          "type": "tuple[]"
        }
      ],
      "name": "setEnforcedOptions",
      "outputs": [],
      "stateMutability": "nonpayable",
      "type": "function"
    },
    {
      "inputs": [
        {
          "internalType": "uint16",
          "name": "_newFeesRate",
          "type": "uint16"
        }
      ],
      "name": "setFeesRate",
      "outputs": [],
      "stateMutability": "nonpayable",
      "type": "function"
    },
    {
      "inputs": [
        {
          "internalType": "address",
          "name": "_newFeesRecipient",
          "type": "address"
        }
      ],
      "name": "setFeesRecipient",
      "outputs": [],
      "stateMutability": "nonpayable",
      "type": "function"
    },
    {
      "inputs": [
        {
          "internalType": "uint256",
          "name": "_globalBurnLimit",
          "type": "uint256"
        }
      ],
      "name": "setGlobalBurnLimit",
      "outputs": [],
      "stateMutability": "nonpayable",
      "type": "function"
    },
    {
      "inputs": [
        {
          "internalType": "uint256",
          "name": "_globalMintLimit",
          "type": "uint256"
        }
      ],
      "name": "setGlobalMintLimit",
      "outputs": [],
      "stateMutability": "nonpayable",
      "type": "function"
    },
    {
      "inputs": [
        {
          "internalType": "uint256",
          "name": "_mintDailyLimit",
          "type": "uint256"
        }
      ],
      "name": "setMintDailyLimit",
      "outputs": [],
      "stateMutability": "nonpayable",
      "type": "function"
    },
    {
      "inputs": [
        {
          "internalType": "address",
          "name": "_msgInspector",
          "type": "address"
        }
      ],
      "name": "setMsgInspector",
      "outputs": [],
      "stateMutability": "nonpayable",
      "type": "function"
    },
    {
      "inputs": [
        {
          "internalType": "uint32",
          "name": "_eid",
          "type": "uint32"
        },
        {
          "internalType": "bytes32",
          "name": "_peer",
          "type": "bytes32"
        }
      ],
      "name": "setPeer",
      "outputs": [],
      "stateMutability": "nonpayable",
      "type": "function"
    },
    {
      "inputs": [
        {
          "internalType": "address",
          "name": "_preCrime",
          "type": "address"
        }
      ],
      "name": "setPreCrime",
      "outputs": [],
      "stateMutability": "nonpayable",
      "type": "function"
    },
    {
      "inputs": [],
      "name": "sharedDecimals",
      "outputs": [
        {
          "internalType": "uint8",
          "name": "",
          "type": "uint8"
        }
      ],
      "stateMutability": "view",
      "type": "function"
    },
    {
      "inputs": [
        {
          "internalType": "uint256",
          "name": "_amount",
          "type": "uint256"
        }
      ],
      "name": "swapLzTokenToPrincipalToken",
      "outputs": [],
      "stateMutability": "nonpayable",
      "type": "function"
    },
    {
      "inputs": [],
      "name": "symbol",
      "outputs": [
        {
          "internalType": "string",
          "name": "",
          "type": "string"
        }
      ],
      "stateMutability": "view",
      "type": "function"
    },
    {
      "inputs": [],
      "name": "toggleIsolateMode",
      "outputs": [],
      "stateMutability": "nonpayable",
      "type": "function"
    },
    {
      "inputs": [],
      "name": "token",
      "outputs": [
        {
          "internalType": "address",
          "name": "",
          "type": "address"
        }
      ],
      "stateMutability": "view",
      "type": "function"
    },
    {
      "inputs": [],
      "name": "totalSupply",
      "outputs": [
        {
          "internalType": "uint256",
          "name": "",
          "type": "uint256"
        }
      ],
      "stateMutability": "view",
      "type": "function"
    },
    {
      "inputs": [
        {
          "internalType": "address",
          "name": "to",
          "type": "address"
        },
        {
          "internalType": "uint256",
          "name": "value",
          "type": "uint256"
        }
      ],
      "name": "transfer",
      "outputs": [
        {
          "internalType": "bool",
          "name": "",
          "type": "bool"
        }
      ],
      "stateMutability": "nonpayable",
      "type": "function"
    },
    {
      "inputs": [
        {
          "internalType": "address",
          "name": "from",
          "type": "address"
        },
        {
          "internalType": "address",
          "name": "to",
          "type": "address"
        },
        {
          "internalType": "uint256",
          "name": "value",
          "type": "uint256"
        }
      ],
      "name": "transferFrom",
      "outputs": [
        {
          "internalType": "bool",
          "name": "",
          "type": "bool"
        }
      ],
      "stateMutability": "nonpayable",
      "type": "function"
    },
    {
      "inputs": [
        {
          "internalType": "address",
          "name": "newOwner",
          "type": "address"
        }
      ],
      "name": "transferOwnership",
      "outputs": [],
      "stateMutability": "nonpayable",
      "type": "function"
    },
    {
      "inputs": [],
      "name": "unpause",
      "outputs": [],
      "stateMutability": "nonpayable",
      "type": "function"
    }
  ],
  "transactionHash": "0x18b2a763e5b329ebe275129ebf2947f87de9693a91b8800904ee7f9a5d9735ca",
  "args": [
    "lz-Par",
    "lzPar",
    "0xa04a24Ac56b878877b273A969370Bb4E6e0196e5",
    "0x6EDCE65403992e310A62460808c4b910D972f10f",
    "0x3676b6ed4ae0c9ce3E0034510719fdF5fd585d55",
    {
      "mintDailyLimit": "10000000000000000000000",
      "globalMintLimit": "100000000000000000000000",
      "burnDailyLimit": "10000000000000000000000",
      "globalBurnLimit": "100000000000000000000000",
      "feesRecipient": "0x3676b6ed4ae0c9ce3E0034510719fdF5fd585d55",
      "feesRate": 0,
      "isIsolateMode": false
    }
  ],
  "numDeployments": 4,
  "solcInputHash": "88e065b18c832cf59b278435b682b535",
  "bytecode": "0x60e06040523480156200001157600080fd5b5060405162004f8838038062004f8883398101604081905262000034916200064c565b85858484838360128484818181818e6001600160a01b0381166200007257604051631e4fbdf760e01b81526000600482015260240160405180910390fd5b6200007d816200024b565b506001600160a01b038083166080528116620000ac57604051632d618d8160e21b815260040160405180910390fd5b60805160405163ca5eb5e160e01b81526001600160a01b0383811660048301529091169063ca5eb5e190602401600060405180830381600087803b158015620000f457600080fd5b505af115801562000109573d6000803e3d6000fd5b5050505050505050620001216200029b60201b60201c565b60ff168360ff16101562000148576040516301e9714b60e41b815260040160405180910390fd5b6200015560068462000793565b6200016290600a620008b2565b60a052506008915062000178905083826200095b565b5060096200018782826200095b565b50506001600a555050600b805460ff191690555050506001600160a01b038416620001c557604051639fabe1c160e01b815260040160405180910390fd5b6001600160a01b03841660c05260a0810151620001e290620002a0565b8051620001ef906200031f565b6020810151620001ff9062000355565b60408101516200020f90620003b4565b60608101516200021f90620003ea565b60c08101516200022f9062000452565b60808101516200023f906200049c565b50505050505062000a27565b600080546001600160a01b038381166001600160a01b0319831681178455604051919092169283917f8be0079c531659141344cd1fd0a4f28419497f9722a3daafe3b4186f6b6457e09190a35050565b600690565b6103e861ffff82161115620002c857604051630d058af560e01b815260040160405180910390fd5b600b805461ffff60b01b1916600160b01b61ffff8416908102919091179091556040519081527ffda307e16a9a5e822864b3947fcb9f4b4e6c23ff58cc37b0a88549915a45d9d7906020015b60405180910390a150565b600d8190556040518181527f5c934a5961dfdba90f90f56bc13fa89851dbeb099556b9b0b34906f7e6c3f2899060200162000314565b6001600160ff1b038111156200037e5760405163400cc7b560e01b815260040160405180910390fd5b600e8190556040518181527f1bd2696aa3971ed1c9859ea19e85e27c12b826ef980a1108e247eb9da48b9cfb9060200162000314565b600f8190556040518181527f6a96e92ade55e423f9534934744e50e8b15b847dc028376d1c90a7cbb0e88dbb9060200162000314565b6001600160ff1b03811115620004135760405163400cc7b560e01b815260040160405180910390fd5b6200041e8160000390565b6010556040518181527f886f62b925870f66388747aadc2de95c94627da5fda4349f5cfa586a339e32869060200162000314565b600b80548215156101000261ff00199091161790556040517f907853d23e2ef9a4fce26edec2a088a636887fadf9c80fdc00e4bf13e9bbb93a906200031490831515815260200190565b6001600160a01b038116620004c457604051639fabe1c160e01b815260040160405180910390fd5b600b805462010000600160b01b031916620100006001600160a01b038416908102919091179091556040519081527fa2b43027058674eb68bf92a2eb43b7784f2b5bb0d61067bb072be7519db2ee5b9060200162000314565b634e487b7160e01b600052604160045260246000fd5b60405160e081016001600160401b03811182821017156200055857620005586200051d565b60405290565b604051601f8201601f191681016001600160401b03811182821017156200058957620005896200051d565b604052919050565b600082601f830112620005a357600080fd5b81516001600160401b03811115620005bf57620005bf6200051d565b6020620005d5601f8301601f191682016200055e565b8281528582848701011115620005ea57600080fd5b60005b838110156200060a578581018301518282018401528201620005ed565b506000928101909101919091529392505050565b80516001600160a01b03811681146200063657600080fd5b919050565b805180151581146200063657600080fd5b6000806000806000808688036101808112156200066857600080fd5b87516001600160401b03808211156200068057600080fd5b6200068e8b838c0162000591565b985060208a0151915080821115620006a557600080fd5b50620006b48a828b0162000591565b965050620006c5604089016200061e565b9450620006d5606089016200061e565b9350620006e5608089016200061e565b925060e0609f1982011215620006fa57600080fd5b506200070562000533565b60a0880151815260c0880151602082015260e0880151604082015261010088015160608201526200073a61012089016200061e565b608082015261014088015161ffff811681146200075657600080fd5b60a08201526200076a61016089016200063b565b60c0820152809150509295509295509295565b634e487b7160e01b600052601160045260246000fd5b60ff8281168282160390811115620007af57620007af6200077d565b92915050565b600181815b80851115620007f6578160001904821115620007da57620007da6200077d565b80851615620007e857918102915b93841c9390800290620007ba565b509250929050565b6000826200080f57506001620007af565b816200081e57506000620007af565b8160018114620008375760028114620008425762000862565b6001915050620007af565b60ff8411156200085657620008566200077d565b50506001821b620007af565b5060208310610133831016604e8410600b841016171562000887575081810a620007af565b620008938383620007b5565b8060001904821115620008aa57620008aa6200077d565b029392505050565b6000620008c360ff841683620007fe565b9392505050565b600181811c90821680620008df57607f821691505b6020821081036200090057634e487b7160e01b600052602260045260246000fd5b50919050565b601f82111562000956576000816000526020600020601f850160051c81016020861015620009315750805b601f850160051c820191505b8181101562000952578281556001016200093d565b5050505b505050565b81516001600160401b038111156200097757620009776200051d565b6200098f81620009888454620008ca565b8462000906565b602080601f831160018114620009c75760008415620009ae5750858301515b600019600386901b1c1916600185901b17855562000952565b600085815260208120601f198616915b82811015620009f857888601518255948401946001909101908401620009d7565b508582101562000a175787850151600019600388901b60f8161c191681555b5050505050600190811b01905550565b60805160a05160c0516144cf62000ab960003960008181610a1301528181611328015281816113a10152818161281a0152818161317301526131f601526000818161098e01528181612ba001528181612c600152612e1f0152600081816107ad01528181610e5501528181611976015281816120ed015281816128c901528181612fef01526130c101526144cf6000f3fe6080604052600436106103f85760003560e01c806373bc84071161020d578063b98bd07011610128578063d045a0dc116100bb578063dd62ed3e1161008a578063f2fde38b1161006f578063f2fde38b14610c10578063fc0c546a14610719578063ff7bd03d14610c3057600080fd5b8063dd62ed3e14610baa578063e764ad6614610bf057600080fd5b8063d045a0dc14610b4d578063d1dd8c6e14610b60578063d424388514610b75578063d98e7ac114610b9557600080fd5b8063be6fdfc9116100f7578063be6fdfc914610ad7578063c7c7f5b314610aec578063c95327d214610b0d578063ca5eb5e114610b2d57600080fd5b8063b98bd07014610a57578063bb0b6a5314610a77578063bc70b35414610aa4578063bd815db014610ac457600080fd5b80638da5cb5b116101a05780639f68b9641161016f5780639f68b964146109d0578063a9059cbb146109e4578063adb724bf14610a04578063b731ea0a14610a3757600080fd5b80638da5cb5b1461094957806395d89b4114610967578063963efcaa1461097c5780639bf73b27146109b057600080fd5b806382413eac116101dc57806382413eac146108e05780638456cb591461090057806384b7719a14610915578063857749b01461093557600080fd5b806373bc84071461084f5780637d25a05e1461086f5780638117af11146108ab5780638117d7b7146108c057600080fd5b806328a8317a1161031857806352ae2879116102ab5780635e280f111161027a5780636fc1b31e1161025f5780636fc1b31e146107e457806370a0823114610804578063715018a61461083a57600080fd5b80635e280f111461079b5780635fe10329146107cf57600080fd5b806352ae2879146107195780635535d4611461072c5780635a0dfe4d1461074c5780635c975abb1461078357600080fd5b80633400288b116102e75780633400288b1461069a57806335387ddf146106ba5780633b6f743b146106d75780633f4ba83a1461070457600080fd5b806328a8317a1461062a5780632dbe85491461064e5780632f356a9d14610663578063313ce5671461067857600080fd5b8063134d4f25116103905780631b27845c1161035f5780631b27845c146105c05780631c7c637a146105d55780631f5e1334146105f557806323b872dd1461060a57600080fd5b8063134d4f2514610533578063156a0d0f1461054857806317442b701461058957806318160ddd146105ab57600080fd5b80630981fadc116103cc5780630981fadc146104885780630d35b415146104b7578063111ecdad146104e657806313137d651461051e57600080fd5b8062b69c68146103fd578063021074821461042157806306fdde0314610436578063095ea7b314610458575b600080fd5b34801561040957600080fd5b50600e545b6040519081526020015b60405180910390f35b34801561042d57600080fd5b5061040e610c50565b34801561044257600080fd5b5061044b610cd5565b604051610418919061354d565b34801561046457600080fd5b50610478610473366004613575565b610d67565b6040519015158152602001610418565b34801561049457600080fd5b50600b54600160b01b900461ffff165b60405161ffff9091168152602001610418565b3480156104c357600080fd5b506104d76104d23660046135b9565b610d81565b604051610418939291906135ee565b3480156104f257600080fd5b50600454610506906001600160a01b031681565b6040516001600160a01b039091168152602001610418565b61053161052c3660046136e2565b610e53565b005b34801561053f57600080fd5b506104a4600281565b34801561055457600080fd5b50604080517f02e49c2c0000000000000000000000000000000000000000000000000000000081526001602082015201610418565b34801561059557600080fd5b5060408051600181526002602082015201610418565b3480156105b757600080fd5b5060075461040e565b3480156105cc57600080fd5b5061040e610f45565b3480156105e157600080fd5b506105316105f0366004613782565b610f6a565b34801561060157600080fd5b506104a4600181565b34801561061657600080fd5b5061047861062536600461379b565b610f7e565b34801561063657600080fd5b50600b546201000090046001600160a01b0316610506565b34801561065a57600080fd5b50600f5461040e565b34801561066f57600080fd5b50610531610fa4565b34801561068457600080fd5b5060125b60405160ff9091168152602001610418565b3480156106a657600080fd5b506105316106b53660046137f5565b610fc3565b3480156106c657600080fd5b50600b54610100900460ff16610478565b3480156106e357600080fd5b506106f76106f236600461381f565b610fd9565b6040516104189190613871565b34801561071057600080fd5b50610531611040565b34801561072557600080fd5b5030610506565b34801561073857600080fd5b5061044b61074736600461389a565b611050565b34801561075857600080fd5b506104786107673660046137f5565b63ffffffff919091166000908152600160205260409020541490565b34801561078f57600080fd5b50600b5460ff16610478565b3480156107a757600080fd5b506105067f000000000000000000000000000000000000000000000000000000000000000081565b3480156107db57600080fd5b5061040e6110f5565b3480156107f057600080fd5b506105316107ff3660046138cd565b61111a565b34801561081057600080fd5b5061040e61081f3660046138cd565b6001600160a01b031660009081526005602052604090205490565b34801561084657600080fd5b50610531611184565b34801561085b57600080fd5b5061053161086a3660046138ea565b611196565b34801561087b57600080fd5b5061089261088a3660046137f5565b600092915050565b60405167ffffffffffffffff9091168152602001610418565b3480156108b757600080fd5b5061040e6111a7565b3480156108cc57600080fd5b506105316108db366004613782565b6111c0565b3480156108ec57600080fd5b506104786108fb366004613905565b6111d1565b34801561090c57600080fd5b506105316111e6565b34801561092157600080fd5b506105316109303660046138cd565b6111f6565b34801561094157600080fd5b506006610688565b34801561095557600080fd5b506000546001600160a01b0316610506565b34801561097357600080fd5b5061044b611207565b34801561098857600080fd5b5061040e7f000000000000000000000000000000000000000000000000000000000000000081565b3480156109bc57600080fd5b506105316109cb366004613782565b611216565b3480156109dc57600080fd5b506000610478565b3480156109f057600080fd5b506104786109ff366004613575565b611411565b348015610a1057600080fd5b507f0000000000000000000000000000000000000000000000000000000000000000610506565b348015610a4357600080fd5b50600254610506906001600160a01b031681565b348015610a6357600080fd5b50610531610a723660046139b1565b61141f565b348015610a8357600080fd5b5061040e610a923660046139f3565b60016020526000908152604090205481565b348015610ab057600080fd5b5061044b610abf366004613a0e565b611439565b610531610ad23660046139b1565b6115e1565b348015610ae357600080fd5b50600c5461040e565b610aff610afa366004613a6f565b611784565b604051610418929190613add565b348015610b1957600080fd5b50610531610b28366004613782565b611925565b348015610b3957600080fd5b50610531610b483660046138cd565b611936565b610531610b5b3660046136e2565b6119d5565b348015610b6c57600080fd5b5061040e611a1d565b348015610b8157600080fd5b50610531610b903660046138cd565b611acb565b348015610ba157600080fd5b50600d5461040e565b348015610bb657600080fd5b5061040e610bc5366004613b30565b6001600160a01b03918216600090815260066020908152604080832093909416825291909152205490565b348015610bfc57600080fd5b50610531610c0b366004613782565b611b2e565b348015610c1c57600080fd5b50610531610c2b3660046138cd565b611b3f565b348015610c3c57600080fd5b50610478610c4b366004613b5e565b611b93565b6000600e54600c5412610c635750600090565b6000600c54600e54610c759190613b90565b90506000610c866201518042613bb7565b600081815260116020526040902054600d5491925090610ca68483613bd9565b1115610ccd5780600d5411610cbc576000610cca565b80600d54610cca9190613bec565b92505b509092915050565b606060088054610ce490613bff565b80601f0160208091040260200160405190810160405280929190818152602001828054610d1090613bff565b8015610d5d5780601f10610d3257610100808354040283529160200191610d5d565b820191906000526020600020905b815481529060010190602001808311610d4057829003601f168201915b5050505050905090565b600033610d75818585611bc9565b60019150505b92915050565b60408051808201909152600080825260208201526060610db4604051806040016040528060008152602001600081525090565b604080518082018252600080825267ffffffffffffffff602080840182905284518381529081019094529195509182610e10565b604080518082019091526000815260606020820152815260200190600190039081610de85790505b509350600080610e35604089013560608a0135610e3060208c018c6139f3565b611bdb565b60408051808201909152918252602082015296989597505050505050565b7f00000000000000000000000000000000000000000000000000000000000000006001600160a01b03163314610ebc576040517f91ac5e4f0000000000000000000000000000000000000000000000000000000081523360048201526024015b60405180910390fd5b60208701803590610ed690610ed1908a6139f3565b611c30565b14610f2d57610ee860208801886139f3565b6040517fc26bebcc00000000000000000000000000000000000000000000000000000000815263ffffffff909116600482015260208801356024820152604401610eb3565b610f3c87878787878787611c85565b50505050505050565b600080610f556201518042613bb7565b60009081526011602052604090205492915050565b610f72611d8b565b610f7b81611dd1565b50565b600033610f8c858285611e06565b610f97858585611e9d565b60019150505b9392505050565b610fac611d8b565b600b54610fc190610100900460ff1615611efc565b565b610fcb611d8b565b610fd58282611f45565b5050565b6040805180820190915260008082526020820152600061100960408501356060860135610e3060208801886139f3565b9150506000806110198684611f9a565b909250905061103661102e60208801886139f3565b8383886120d7565b9695505050505050565b611048611d8b565b610fc16121b8565b60036020908152600092835260408084209091529082529020805461107490613bff565b80601f01602080910402602001604051908101604052809291908181526020018280546110a090613bff565b80156110ed5780601f106110c2576101008083540402835291602001916110ed565b820191906000526020600020905b8154815290600101906020018083116110d057829003601f168201915b505050505081565b6000806111056201518042613bb7565b60009081526012602052604090205492915050565b611122611d8b565b6004805473ffffffffffffffffffffffffffffffffffffffff19166001600160a01b0383169081179091556040519081527ff0be4f1e87349231d80c36b33f9e8639658eeaf474014dee15a3e6a4d4414197906020015b60405180910390a150565b61118c611d8b565b610fc1600061220a565b61119e611d8b565b610f7b81612267565b60006111bb60105460ff81901d9081011890565b905090565b6111c8611d8b565b610f7b81612311565b6001600160a01b03811630145b949350505050565b6111ee611d8b565b610fc1612346565b6111fe611d8b565b610f7b81612383565b606060098054610ce490613bff565b61121e612431565b611226612474565b61123033826124b1565b600061123b826124e7565b9050818114611276576040517fb643bfa600000000000000000000000000000000000000000000000000000000815260040160405180910390fd5b61127f81612586565b600b5460009061129b908390600160b01b900461ffff166125dc565b90506112a78183613bec565b6040805133815260208101869052908101829052606081018390529092507f8a06e5a314d201ffe65430e200f53fa5d5b52a3d96aee88320e98552d39ae6339060800160405180910390a1801561138557600b546040516340c10f1960e01b8152620100009091046001600160a01b039081166004830152602482018390527f000000000000000000000000000000000000000000000000000000000000000016906340c10f1990604401600060405180830381600087803b15801561136c57600080fd5b505af1158015611380573d6000803e3d6000fd5b505050505b6040516340c10f1960e01b8152336004820152602481018390527f00000000000000000000000000000000000000000000000000000000000000006001600160a01b0316906340c10f1990604401600060405180830381600087803b1580156113ed57600080fd5b505af1158015611401573d6000803e3d6000fd5b505050505050610f7b6001600a55565b600033610d75818585611e9d565b611427611d8b565b610fd56114348284613cee565b612600565b63ffffffff8416600090815260036020908152604080832061ffff8716845290915281208054606092919061146d90613bff565b80601f016020809104026020016040519081016040528092919081815260200182805461149990613bff565b80156114e65780601f106114bb576101008083540402835291602001916114e6565b820191906000526020600020905b8154815290600101906020018083116114c957829003601f168201915b5050505050905080516000036115365783838080601f0160208091040260200160405190810160405280939291908181526020018383808284376000920191909152509294506111de9350505050565b60008390036115465790506111de565b600283106115c45761158d84848080601f01602080910402602001604051908101604052809392919081815260200183838082843760009201919091525061270792505050565b8061159b8460028188613e04565b6040516020016115ad93929190613e2e565b6040516020818303038152906040529150506111de565b8383604051639a6d49cd60e01b8152600401610eb3929190613e7f565b60005b818110156116ea57368383838181106115ff576115ff613e93565b90506020028101906116119190613ea9565b905061164461162360208301836139f3565b602083013563ffffffff919091166000908152600160205260409020541490565b61164e57506116e2565b3063d045a0dc60c08301358360a081013561166d610100830183613eca565b61167e610100890160e08a016138cd565b61168c6101208a018a613eca565b6040518963ffffffff1660e01b81526004016116ae9796959493929190613f27565b6000604051808303818588803b1580156116c757600080fd5b505af11580156116db573d6000803e3d6000fd5b5050505050505b6001016115e4565b50336001600160a01b0316638e9e70996040518163ffffffff1660e01b8152600401600060405180830381865afa158015611729573d6000803e3d6000fd5b505050506040513d6000823e601f3d908101601f191682016040526117519190810190613fae565b6040517f8351eea7000000000000000000000000000000000000000000000000000000008152600401610eb3919061354d565b61178c6134b5565b60408051808201909152600080825260208201526117a8612431565b6117b0612474565b6117bd60a0860186613eca565b90506020146117f8576040517ffe9e4f4400000000000000000000000000000000000000000000000000000000815260040160405180910390fd5b600061180760a0870187613eca565b810190611814919061401c565b90506000806118398360408a013560608b013561183460208d018d6139f3565b612733565b9150915060008061184a8a84611f9a565b909250905061187661185f60208c018c6139f3565b8383611870368e90038e018e614039565b8c612896565b9650604051806040016040528085815260200184815250955061189a8a6020013590565b87516001600160a01b03919091169033907f031ac60f40cc4c09c7ebd70b93ac8b3b305ac250643d031922c6e3885ef9e8286118d960208f018f6139f3565b6040805163ffffffff90921682528e3560208301528a151590820152606081018990526080810188905260a00160405180910390a4505050505061191d6001600a55565b935093915050565b61192d611d8b565b610f7b816129a1565b61193e611d8b565b6040517fca5eb5e10000000000000000000000000000000000000000000000000000000081526001600160a01b0382811660048301527f0000000000000000000000000000000000000000000000000000000000000000169063ca5eb5e190602401600060405180830381600087803b1580156119ba57600080fd5b505af11580156119ce573d6000803e3d6000fd5b5050505050565b333014611a0e576040517f14d4a4e800000000000000000000000000000000000000000000000000000000815260040160405180910390fd5b610f3c87878787878787610f2d565b600b54600090610100900460ff168015611a3957506000600c54125b15611a445750600090565b601054600c5413611a555750600090565b6000611a76600c54601054611a6a9190613b90565b60ff81901d9081011890565b90506000611a876201518042613bb7565b600081815260126020526040902054600f5491925090611aa78483613bd9565b1115610ccd5780600f5411611abd576000610cca565b80600f54610cca9190613bec565b611ad3611d8b565b6002805473ffffffffffffffffffffffffffffffffffffffff19166001600160a01b0383169081179091556040519081527fd48d879cef83a1c0bdda516f27b13ddb1b3f8bbac1c9e1511bb2a659c242776090602001611179565b611b36611d8b565b610f7b81612a1f565b611b47611d8b565b6001600160a01b038116611b8a576040517f1e4fbdf700000000000000000000000000000000000000000000000000000000815260006004820152602401610eb3565b610f7b8161220a565b6000602082018035906001908390611bab90866139f3565b63ffffffff1681526020810191909152604001600020541492915050565b611bd68383836001612a95565b505050565b600080611be785612b9c565b91508190508381101561191d576040517f71c4efed0000000000000000000000000000000000000000000000000000000081526004810182905260248101859052604401610eb3565b63ffffffff811660009081526001602052604081205480610d7b576040517ff6ff4fb700000000000000000000000000000000000000000000000000000000815263ffffffff84166004820152602401610eb3565b611c8d612431565b6000611c9f611c9c8787612bd3565b90565b90506000611cad8787612beb565b806020019051810190611cc0919061406b565b9150506000806000611cf785611cde611cd98d8d612c36565b612c59565b8e6000016020810190611cf191906139f3565b87612c8f565b925092509250846001600160a01b0316611d128d6020013590565b6001600160a01b03168c7fd16209d5584ea02a4fd0b04bb61d08057eef523a6b8f8955aa535f975b6373678f6000016020810190611d5091906139f3565b6040805163ffffffff90921682526020820189905281018790526060810186905260800160405180910390a45050505050610f3c6001600a55565b6000546001600160a01b03163314610fc1576040517f118cdaa7000000000000000000000000000000000000000000000000000000008152336004820152602401610eb3565b600d8190556040518181527f5c934a5961dfdba90f90f56bc13fa89851dbeb099556b9b0b34906f7e6c3f28990602001611179565b6001600160a01b038381166000908152600660209081526040808320938616835292905220546000198114611e975781811015611e88576040517ffb8f41b20000000000000000000000000000000000000000000000000000000081526001600160a01b03841660048201526024810182905260448101839052606401610eb3565b611e9784848484036000612a95565b50505050565b6001600160a01b038316611ec757604051634b637e8f60e11b815260006004820152602401610eb3565b6001600160a01b038216611ef15760405163ec442f0560e01b815260006004820152602401610eb3565b611bd6838383612cd5565b600b80548215156101000261ff00199091161790556040517f907853d23e2ef9a4fce26edec2a088a636887fadf9c80fdc00e4bf13e9bbb93a9061117990831515815260200190565b63ffffffff8216600081815260016020908152604091829020849055815192835282018390527f238399d427b947898edb290f5ff0f9109849b1c3ba196a42e35f00c50a54b98b910160405180910390a15050565b6060806000611ff78560200135611fb086612e18565b611fbd60a0890189613eca565b8080601f016020809104026020016040519081016040528093929190818152602001838380828437600092019190915250612e4492505050565b909350905060008161200a57600161200d565b60025b905061202d61201f60208801886139f3565b82610abf60808a018a613eca565b6004549093506001600160a01b0316156120ce57600480546040517f043a78eb0000000000000000000000000000000000000000000000000000000081526001600160a01b039091169163043a78eb9161208b918891889101614090565b602060405180830381865afa1580156120a8573d6000803e3d6000fd5b505050506040513d601f19601f820116820180604052508101906120cc91906140b5565b505b50509250929050565b60408051808201909152600080825260208201527f00000000000000000000000000000000000000000000000000000000000000006001600160a01b031663ddc28c586040518060a001604052808863ffffffff16815260200161213a89611c30565b8152602001878152602001868152602001851515815250306040518363ffffffff1660e01b815260040161216f9291906140d2565b6040805180830381865afa15801561218b573d6000803e3d6000fd5b505050506040513d601f19601f820116820180604052508101906121af919061417b565b95945050505050565b6121c0612ecf565b600b805460ff191690557f5db9ee0a495bf2e6ff9c91a7834c1ba4fdd244a5e8aa4e537bd38aeae4b073aa335b6040516001600160a01b03909116815260200160405180910390a1565b600080546001600160a01b0383811673ffffffffffffffffffffffffffffffffffffffff19831681178455604051919092169283917f8be0079c531659141344cd1fd0a4f28419497f9722a3daafe3b4186f6b6457e09190a35050565b6103e861ffff821611156122a7576040517f0d058af500000000000000000000000000000000000000000000000000000000815260040160405180910390fd5b600b80547fffffffffffffffff0000ffffffffffffffffffffffffffffffffffffffffffff16600160b01b61ffff8416908102919091179091556040519081527ffda307e16a9a5e822864b3947fcb9f4b4e6c23ff58cc37b0a88549915a45d9d790602001611179565b600f8190556040518181527f6a96e92ade55e423f9534934744e50e8b15b847dc028376d1c90a7cbb0e88dbb90602001611179565b61234e612474565b600b805460ff191660011790557f62e78cea01bee320cd4e420270b5ea74000d11b0c9f74754ebdbfc544b05a2586121ed3390565b6001600160a01b0381166123c3576040517f9fabe1c100000000000000000000000000000000000000000000000000000000815260040160405180910390fd5b600b80547fffffffffffffffffffff0000000000000000000000000000000000000000ffff16620100006001600160a01b038416908102919091179091556040519081527fa2b43027058674eb68bf92a2eb43b7784f2b5bb0d61067bb072be7519db2ee5b90602001611179565b6002600a540361246d576040517f3ee5aeb500000000000000000000000000000000000000000000000000000000815260040160405180910390fd5b6002600a55565b600b5460ff1615610fc1576040517fd93c066500000000000000000000000000000000000000000000000000000000815260040160405180910390fd5b6001600160a01b0382166124db57604051634b637e8f60e11b815260006004820152602401610eb3565b610fd582600083612cd5565b6000600e54600c54126124fc57506000919050565b600e54600c5461250c9084614197565b136125175781612527565b600c54600e546125279190613bec565b905060006125386201518042613bb7565b600081815260116020526040902054600d54919250906125588483613bd9565b111561257f5780600d541161256e57600061257c565b80600d5461257c9190613bec565b92505b5050919050565b60006125956201518042613bb7565b9050816011600083815260200190815260200160002060008282546125ba9190613bd9565b9250508190555081600c60008282546125d39190614197565b90915550505050565b600081611388190483118202156125f257600080fd5b506127109102611388010490565b60005b81518110156126d75761263282828151811061262157612621613e93565b602002602001015160400151612707565b81818151811061264457612644613e93565b6020026020010151604001516003600084848151811061266657612666613e93565b60200260200101516000015163ffffffff1663ffffffff16815260200190815260200160002060008484815181106126a0576126a0613e93565b60200260200101516020015161ffff1661ffff16815260200190815260200160002090816126ce919061420f565b50600101612603565b507fbe4864a8e820971c0247f5992e2da559595f7bf076a21cb5928d443d2a13b6748160405161117991906142cf565b600281015161ffff8116600314610fd55781604051639a6d49cd60e01b8152600401610eb3919061354d565b600080612741858585611bdb565b909250905085156128835761275582612f0b565b600b54610100900460ff16156127a7576000600c5412156127a2576040517fe07ae02200000000000000000000000000000000000000000000000000000000815260040160405180910390fd5b6127e5565b601054600c5412156127e5576040517f1a99413500000000000000000000000000000000000000000000000000000000815260040160405180910390fd5b6040517f9dc29fac000000000000000000000000000000000000000000000000000000008152336004820152602481018390527f00000000000000000000000000000000000000000000000000000000000000006001600160a01b031690639dc29fac90604401600060405180830381600087803b15801561286657600080fd5b505af115801561287a573d6000803e3d6000fd5b5050505061288d565b61288d33836124b1565b94509492505050565b61289e6134b5565b60006128ad8460000151612faa565b6020850151909150156128c7576128c78460200151612feb565b7f00000000000000000000000000000000000000000000000000000000000000006001600160a01b0316632637a450826040518060a001604052808b63ffffffff1681526020016129178c611c30565b81526020018a815260200189815260200160008960200151111515815250866040518463ffffffff1660e01b81526004016129539291906140d2565b60806040518083038185885af1158015612971573d6000803e3d6000fd5b50505050506040513d601f19601f82011682018060405250810190612996919061435a565b979650505050505050565b7f7fffffffffffffffffffffffffffffffffffffffffffffffffffffffffffffff8111156129e25760405163400cc7b560e01b815260040160405180910390fd5b6129ec8160000390565b6010556040518181527f886f62b925870f66388747aadc2de95c94627da5fda4349f5cfa586a339e328690602001611179565b7f7fffffffffffffffffffffffffffffffffffffffffffffffffffffffffffffff811115612a605760405163400cc7b560e01b815260040160405180910390fd5b600e8190556040518181527f1bd2696aa3971ed1c9859ea19e85e27c12b826ef980a1108e247eb9da48b9cfb90602001611179565b6001600160a01b038416612ad8576040517fe602df0500000000000000000000000000000000000000000000000000000000815260006004820152602401610eb3565b6001600160a01b038316612b1b576040517f94280d6200000000000000000000000000000000000000000000000000000000815260006004820152602401610eb3565b6001600160a01b0380851660009081526006602090815260408083209387168352929052208290558015611e9757826001600160a01b0316846001600160a01b03167f8c5be1e5ebec7d5bd14f71427d1e84f3dd0314c0f7b2291e5b200ac8c7c3b92584604051612b8e91815260200190565b60405180910390a350505050565b60007f0000000000000000000000000000000000000000000000000000000000000000612bc98184613bb7565b610d7b91906143a4565b6000612be26020828486613e04565b610f9d916143bb565b6060612bfa8260288186613e04565b8080601f016020809104026020016040519081016040528093929190818152602001838380828437600092019190915250929695505050505050565b6000612c46602860208486613e04565b612c4f916143d9565b60c01c9392505050565b6000610d7b7f000000000000000000000000000000000000000000000000000000000000000067ffffffffffffffff84166143a4565b6000806000612c9f8787866130e6565b909350905080612caf8488613bec565b612cb99190613bec565b91508115612ccb57612ccb878361325a565b9450945094915050565b6001600160a01b038316612d00578060076000828254612cf59190613bd9565b90915550612d8b9050565b6001600160a01b03831660009081526005602052604090205481811015612d6c576040517fe450d38c0000000000000000000000000000000000000000000000000000000081526001600160a01b03851660048201526024810182905260448101839052606401610eb3565b6001600160a01b03841660009081526005602052604090209082900390555b6001600160a01b038216612da757600780548290039055612dc6565b6001600160a01b03821660009081526005602052604090208054820190555b816001600160a01b0316836001600160a01b03167fddf252ad1be2c89b69c2b068fc378daa952ba7f163c4a11628f55a4df523b3ef83604051612e0b91815260200190565b60405180910390a3505050565b6000610d7b7f000000000000000000000000000000000000000000000000000000000000000083613bb7565b8051606090151580612e9e578484604051602001612e8a92919091825260c01b77ffffffffffffffffffffffffffffffffffffffffffffffff1916602082015260280190565b604051602081830303815290604052612ec5565b84843385604051602001612eb59493929190614418565b6040516020818303038152906040525b9150935093915050565b600b5460ff16610fc1576040517f8dfc202b00000000000000000000000000000000000000000000000000000000815260040160405180910390fd5b6000612f1a6201518042613bb7565b600f5460008281526012602052604090205491925090612f3b908490613bd9565b1115612f73576040517f2ba1c82800000000000000000000000000000000000000000000000000000000815260040160405180910390fd5b60008181526012602052604081208054849290612f91908490613bd9565b9250508190555081600c60008282546125d39190613b90565b6000813414612fe7576040517f9f704120000000000000000000000000000000000000000000000000000000008152346004820152602401610eb3565b5090565b60007f00000000000000000000000000000000000000000000000000000000000000006001600160a01b031663e4fe1d946040518163ffffffff1660e01b8152600401602060405180830381865afa15801561304b573d6000803e3d6000fd5b505050506040513d601f19601f8201168201806040525081019061306f919061446a565b90506001600160a01b0381166130b1576040517f5373352a00000000000000000000000000000000000000000000000000000000815260040160405180910390fd5b610fd56001600160a01b038216337f000000000000000000000000000000000000000000000000000000000000000085613290565b6000806130f2846124e7565b9150811561191d5761310382612586565b82156131d057600b54600160b01b900461ffff16156131d057600b54613135908390600160b01b900461ffff166125dc565b90506131418183613bec565b600b546040516340c10f1960e01b81526001600160a01b036201000090920482166004820152602481018490529193507f000000000000000000000000000000000000000000000000000000000000000016906340c10f1990604401600060405180830381600087803b1580156131b757600080fd5b505af11580156131cb573d6000803e3d6000fd5b505050505b6040516340c10f1960e01b81526001600160a01b038681166004830152602482018490527f000000000000000000000000000000000000000000000000000000000000000016906340c10f1990604401600060405180830381600087803b15801561323a57600080fd5b505af115801561324e573d6000803e3d6000fd5b50505050935093915050565b6001600160a01b0382166132845760405163ec442f0560e01b815260006004820152602401610eb3565b610fd560008383612cd5565b604080516001600160a01b038581166024830152848116604483015260648083018590528351808403909101815260849092019092526020810180517bffffffffffffffffffffffffffffffffffffffffffffffffffffffff167f23b872dd00000000000000000000000000000000000000000000000000000000179052611e97918691906000906133249084168361338b565b9050805160001415801561334957508080602001905181019061334791906140b5565b155b15611bd6576040517f5274afe70000000000000000000000000000000000000000000000000000000081526001600160a01b0384166004820152602401610eb3565b6060610f9d8383600084600080856001600160a01b031684866040516133b19190614487565b60006040518083038185875af1925050503d80600081146133ee576040519150601f19603f3d011682016040523d82523d6000602084013e6133f3565b606091505b50915091506110368683836060826134135761340e82613473565b610f9d565b815115801561342a57506001600160a01b0384163b155b1561346c576040517f9996b3150000000000000000000000000000000000000000000000000000000081526001600160a01b0385166004820152602401610eb3565b5080610f9d565b8051156134835780518082602001fd5b6040517f1425ea4200000000000000000000000000000000000000000000000000000000815260040160405180910390fd5b604051806060016040528060008019168152602001600067ffffffffffffffff1681526020016134f8604051806040016040528060008152602001600081525090565b905290565b60005b83811015613518578181015183820152602001613500565b50506000910152565b600081518084526135398160208601602086016134fd565b601f01601f19169290920160200192915050565b602081526000610f9d6020830184613521565b6001600160a01b0381168114610f7b57600080fd5b6000806040838503121561358857600080fd5b823561359381613560565b946020939093013593505050565b600060e082840312156135b357600080fd5b50919050565b6000602082840312156135cb57600080fd5b813567ffffffffffffffff8111156135e257600080fd5b6111de848285016135a1565b8351815260208085015190820152600060a08201604060a0604085015281865180845260c08601915060c08160051b8701019350602080890160005b838110156136695788870360bf1901855281518051885283015183880187905261365687890182613521565b975050938201939082019060010161362a565b505087516060880152505050602085015160808501525090506111de565b6000606082840312156135b357600080fd5b60008083601f8401126136ab57600080fd5b50813567ffffffffffffffff8111156136c357600080fd5b6020830191508360208285010111156136db57600080fd5b9250929050565b600080600080600080600060e0888a0312156136fd57600080fd5b6137078989613687565b965060608801359550608088013567ffffffffffffffff8082111561372b57600080fd5b6137378b838c01613699565b909750955060a08a0135915061374c82613560565b90935060c0890135908082111561376257600080fd5b5061376f8a828b01613699565b989b979a50959850939692959293505050565b60006020828403121561379457600080fd5b5035919050565b6000806000606084860312156137b057600080fd5b83356137bb81613560565b925060208401356137cb81613560565b929592945050506040919091013590565b803563ffffffff811681146137f057600080fd5b919050565b6000806040838503121561380857600080fd5b613593836137dc565b8015158114610f7b57600080fd5b6000806040838503121561383257600080fd5b823567ffffffffffffffff81111561384957600080fd5b613855858286016135a1565b925050602083013561386681613811565b809150509250929050565b815181526020808301519082015260408101610d7b565b803561ffff811681146137f057600080fd5b600080604083850312156138ad57600080fd5b6138b6836137dc565b91506138c460208401613888565b90509250929050565b6000602082840312156138df57600080fd5b8135610f9d81613560565b6000602082840312156138fc57600080fd5b610f9d82613888565b60008060008060a0858703121561391b57600080fd5b6139258686613687565b9350606085013567ffffffffffffffff81111561394157600080fd5b61394d87828801613699565b909450925050608085013561396181613560565b939692955090935050565b60008083601f84011261397e57600080fd5b50813567ffffffffffffffff81111561399657600080fd5b6020830191508360208260051b85010111156136db57600080fd5b600080602083850312156139c457600080fd5b823567ffffffffffffffff8111156139db57600080fd5b6139e78582860161396c565b90969095509350505050565b600060208284031215613a0557600080fd5b610f9d826137dc565b60008060008060608587031215613a2457600080fd5b613a2d856137dc565b9350613a3b60208601613888565b9250604085013567ffffffffffffffff811115613a5757600080fd5b613a6387828801613699565b95989497509550505050565b60008060008385036080811215613a8557600080fd5b843567ffffffffffffffff811115613a9c57600080fd5b613aa8878288016135a1565b9450506040601f1982011215613abd57600080fd5b506020840191506060840135613ad281613560565b809150509250925092565b600060c0820190508351825267ffffffffffffffff60208501511660208301526040840151613b19604084018280518252602090810151910152565b5082516080830152602083015160a0830152610f9d565b60008060408385031215613b4357600080fd5b8235613b4e81613560565b9150602083013561386681613560565b600060608284031215613b7057600080fd5b610f9d8383613687565b634e487b7160e01b600052601160045260246000fd5b8181036000831280158383131683831282161715613bb057613bb0613b7a565b5092915050565b600082613bd457634e487b7160e01b600052601260045260246000fd5b500490565b80820180821115610d7b57610d7b613b7a565b81810381811115610d7b57610d7b613b7a565b600181811c90821680613c1357607f821691505b6020821081036135b357634e487b7160e01b600052602260045260246000fd5b634e487b7160e01b600052604160045260246000fd5b6040516060810167ffffffffffffffff81118282101715613c6c57613c6c613c33565b60405290565b6040805190810167ffffffffffffffff81118282101715613c6c57613c6c613c33565b604051601f8201601f1916810167ffffffffffffffff81118282101715613cbe57613cbe613c33565b604052919050565b600067ffffffffffffffff821115613ce057613ce0613c33565b50601f01601f191660200190565b600067ffffffffffffffff80841115613d0957613d09613c33565b8360051b6020613d1a818301613c95565b868152918501918181019036841115613d3257600080fd5b865b84811015613df857803586811115613d4c5760008081fd5b88016060368290031215613d605760008081fd5b613d68613c49565b613d71826137dc565b8152613d7e868301613888565b8682015260408083013589811115613d965760008081fd5b929092019136601f840112613dab5760008081fd5b8235613dbe613db982613cc6565b613c95565b8181523689838701011115613dd35760008081fd5b818986018a830137600091810189019190915290820152845250918301918301613d34565b50979650505050505050565b60008085851115613e1457600080fd5b83861115613e2157600080fd5b5050820193919092039150565b60008451613e408184602089016134fd565b8201838582376000930192835250909392505050565b81835281816020850137506000828201602090810191909152601f909101601f19169091010190565b6020815260006111de602083018486613e56565b634e487b7160e01b600052603260045260246000fd5b6000823561013e19833603018112613ec057600080fd5b9190910192915050565b6000808335601e19843603018112613ee157600080fd5b83018035915067ffffffffffffffff821115613efc57600080fd5b6020019150368190038213156136db57600080fd5b67ffffffffffffffff81168114610f7b57600080fd5b63ffffffff613f35896137dc565b1681526020880135602082015260006040890135613f5281613f11565b67ffffffffffffffff811660408401525087606083015260e06080830152613f7e60e083018789613e56565b6001600160a01b03861660a084015282810360c0840152613fa0818587613e56565b9a9950505050505050505050565b600060208284031215613fc057600080fd5b815167ffffffffffffffff811115613fd757600080fd5b8201601f81018413613fe857600080fd5b8051613ff6613db982613cc6565b81815285602083850101111561400b57600080fd5b6121af8260208301602086016134fd565b60006020828403121561402e57600080fd5b8135610f9d81613811565b60006040828403121561404b57600080fd5b614053613c72565b82358152602083013560208201528091505092915050565b6000806040838503121561407e57600080fd5b82519150602083015161386681613811565b6040815260006140a36040830185613521565b82810360208401526121af8185613521565b6000602082840312156140c757600080fd5b8151610f9d81613811565b6040815263ffffffff8351166040820152602083015160608201526000604084015160a0608084015261410860e0840182613521565b90506060850151603f198483030160a08501526141258282613521565b60809690960151151560c08501525050506001600160a01b039190911660209091015290565b60006040828403121561415d57600080fd5b614165613c72565b9050815181526020820151602082015292915050565b60006040828403121561418d57600080fd5b610f9d838361414b565b80820182811260008312801582168215821617156141b7576141b7613b7a565b505092915050565b601f821115611bd6576000816000526020600020601f850160051c810160208610156141e85750805b601f850160051c820191505b81811015614207578281556001016141f4565b505050505050565b815167ffffffffffffffff81111561422957614229613c33565b61423d816142378454613bff565b846141bf565b602080601f831160018114614272576000841561425a5750858301515b600019600386901b1c1916600185901b178555614207565b600085815260208120601f198616915b828110156142a157888601518255948401946001909101908401614282565b50858210156142bf5787850151600019600388901b60f8161c191681555b5050505050600190811b01905550565b600060208083018184528085518083526040925060408601915060408160051b87010184880160005b8381101561434c57888303603f190185528151805163ffffffff1684528781015161ffff1688850152860151606087850181905261433881860183613521565b9689019694505050908601906001016142f8565b509098975050505050505050565b60006080828403121561436c57600080fd5b614374613c49565b82518152602083015161438681613f11565b6020820152614398846040850161414b565b60408201529392505050565b8082028115828204841417610d7b57610d7b613b7a565b80356020831015610d7b57600019602084900360031b1b1692915050565b77ffffffffffffffffffffffffffffffffffffffffffffffff1981358181169160088510156141b75760089490940360031b84901b1690921692915050565b84815277ffffffffffffffffffffffffffffffffffffffffffffffff198460c01b1660208201528260288201526000825161445a8160488501602087016134fd565b9190910160480195945050505050565b60006020828403121561447c57600080fd5b8151610f9d81613560565b60008251613ec08184602087016134fd56fea2646970667358221220f7f544497014aca5097757fcf7f17fe2d2b6c4805779d9ecb8169f6a3f323c0764736f6c63430008160033",
  "devdoc": {
    "author": "Murphy Labs",
    "custom:contact": "security@murphylabs.io",
    "errors": {
      "AddressEmptyCode(address)": [
        {
          "details": "There's no code at `target` (it is not a contract)."
        }
      ],
      "AddressInsufficientBalance(address)": [
        {
          "details": "The ETH balance of the account is not enough to perform the operation."
        }
      ],
      "ERC20InsufficientAllowance(address,uint256,uint256)": [
        {
          "details": "Indicates a failure with the `spender`s `allowance`. Used in transfers.",
          "params": {
            "allowance": "Amount of tokens a `spender` is allowed to operate with.",
            "needed": "Minimum amount required to perform a transfer.",
            "spender": "Address that may be allowed to operate on tokens without being their owner."
          }
        }
      ],
      "ERC20InsufficientBalance(address,uint256,uint256)": [
        {
          "details": "Indicates an error related to the current `balance` of a `sender`. Used in transfers.",
          "params": {
            "balance": "Current balance for the interacting account.",
            "needed": "Minimum amount required to perform a transfer.",
            "sender": "Address whose tokens are being transferred."
          }
        }
      ],
      "ERC20InvalidApprover(address)": [
        {
          "details": "Indicates a failure with the `approver` of a token to be approved. Used in approvals.",
          "params": {
            "approver": "Address initiating an approval operation."
          }
        }
      ],
      "ERC20InvalidReceiver(address)": [
        {
          "details": "Indicates a failure with the token `receiver`. Used in transfers.",
          "params": {
            "receiver": "Address to which tokens are being transferred."
          }
        }
      ],
      "ERC20InvalidSender(address)": [
        {
          "details": "Indicates a failure with the token `sender`. Used in transfers.",
          "params": {
            "sender": "Address whose tokens are being transferred."
          }
        }
      ],
      "ERC20InvalidSpender(address)": [
        {
          "details": "Indicates a failure with the `spender` to be approved. Used in approvals.",
          "params": {
            "spender": "Address that may be allowed to operate on tokens without being their owner."
          }
        }
      ],
      "EnforcedPause()": [
        {
          "details": "The operation failed because the contract is paused."
        }
      ],
      "ExpectedPause()": [
        {
          "details": "The operation failed because the contract is not paused."
        }
      ],
      "FailedInnerCall()": [
        {
          "details": "A call to an address target failed. The target may have reverted."
        }
      ],
      "OwnableInvalidOwner(address)": [
        {
          "details": "The owner is not a valid owner account. (eg. `address(0)`)"
        }
      ],
      "OwnableUnauthorizedAccount(address)": [
        {
          "details": "The caller account is not authorized to perform an operation."
        }
      ],
      "ReentrancyGuardReentrantCall()": [
        {
          "details": "Unauthorized reentrant call."
        }
      ],
      "SafeERC20FailedOperation(address)": [
        {
          "details": "An operation with an ERC20 token failed."
        }
      ]
    },
    "events": {
      "Approval(address,address,uint256)": {
        "details": "Emitted when the allowance of a `spender` for an `owner` is set by a call to {approve}. `value` is the new allowance."
      },
      "BridgeableTokenReceived(bytes32,uint32,address,address,uint256,uint256,uint256)": {
        "params": {
          "amountReceivedLD": "the amount of tokens received in local decimals.",
          "feeAmountLD": "the amount of the fees in local decimals.",
          "from": "the Address of the token sender.",
          "guid": "the GUID of the OFT message.",
          "oftReceived": "the amount of OFT received.",
          "srcEid": "the Eid code of the source chain.",
          "to": "the Address of the token receiver."
        }
      },
      "BridgeableTokenSent(bytes32,uint32,address,address,uint256,bool,uint256,uint256)": {
        "params": {
          "amountReceive": "the amount expected to receive on the destination chain.",
          "amountSentLD": "the amount sent in local decimals.",
          "dstEid": "the Eid code of the destination chain.",
          "from": "the Address of the token sender.",
          "guid": "the GUID of the OFT message.",
          "isPrincipalTokenBurned": "the flag to indicate if the principal tokens are burned or OFTs.",
          "nativeFeeAmount": "the amount of the fees in native token.",
          "to": "the Address that will receive the tokens."
        }
      },
      "BurnableDailyLimitSet(uint256)": {
        "params": {
          "burnableDailyLimit": "the new burnable daily limit."
        }
      },
      "FeesRateSet(uint16)": {
        "params": {
          "feesRate": "the new fees rate."
        }
      },
      "FeesRecipientSet(address)": {
        "params": {
          "feesRecipient": "the new fees recipient address."
        }
      },
      "GlobalBurnLimitSet(uint256)": {
        "params": {
          "globalBurnLimit": "the new global burn limit."
        }
      },
      "GlobalMintLimitSet(uint256)": {
        "params": {
          "globalMintLimit": "the new global mint limit."
        }
      },
      "IsolateModeToggled(bool)": {
        "params": {
          "isolateMode": "the flag to indicate if the isolate mode is enabled."
        }
      },
      "MintableDailyLimitSet(uint256)": {
        "params": {
          "mintableDailyLimit": "the new mintable daily limit."
        }
      },
      "OFTSwapped(address,uint256,uint256,uint256)": {
        "params": {
          "amountSwapped": "Amount of OFT swapped.",
          "caller": "Address of the caller.",
          "feeAmount": "Amount of fees in principal token.",
          "principalTokenAmountReceived": "Amount of principal tokens received."
        }
      },
      "Paused(address)": {
        "details": "Emitted when the pause is triggered by `account`."
      },
      "PreCrimeSet(address)": {
        "details": "Emitted when the preCrime contract address is set.",
        "params": {
          "preCrimeAddress": "The address of the preCrime contract."
        }
      },
      "Transfer(address,address,uint256)": {
        "details": "Emitted when `value` tokens are moved from one account (`from`) to another (`to`). Note that `value` may be zero."
      },
      "Unpaused(address)": {
        "details": "Emitted when the pause is lifted by `account`."
      }
    },
    "kind": "dev",
    "methods": {
      "allowInitializePath((uint32,bytes32,uint64))": {
        "details": "This indicates to the endpoint that the OApp has enabled msgs for this particular path to be received.This defaults to assuming if a peer has been set, its initialized. Can be overridden by the OApp if there is other logic to determine this.",
        "params": {
          "origin": "The origin information containing the source endpoint and sender address."
        },
        "returns": {
          "_0": "Whether the path has been initialized."
        }
      },
      "allowance(address,address)": {
        "details": "See {IERC20-allowance}."
      },
      "approvalRequired()": {
        "details": "In the case of OFT where the contract IS the token, approval is NOT required.",
        "returns": {
          "_0": "requiresApproval Needs approval of the underlying token implementation."
        }
      },
      "approve(address,uint256)": {
        "details": "See {IERC20-approve}. NOTE: If `value` is the maximum `uint256`, the allowance is not updated on `transferFrom`. This is semantically equivalent to an infinite approval. Requirements: - `spender` cannot be the zero address."
      },
      "balanceOf(address)": {
        "details": "See {IERC20-balanceOf}."
      },
      "combineOptions(uint32,uint16,bytes)": {
        "details": "If there is an enforced lzReceive option: - {gasLimit: 200k, msg.value: 1 ether} AND a caller supplies a lzReceive option: {gasLimit: 100k, msg.value: 0.5 ether} - The resulting options will be {gasLimit: 300k, msg.value: 1.5 ether} when the message is executed on the remote lzReceive() function.This presence of duplicated options is handled off-chain in the verifier/executor.",
        "params": {
          "_eid": "The endpoint ID.",
          "_extraOptions": "Additional options passed by the caller.",
          "_msgType": "The OAPP message type."
        },
        "returns": {
          "_0": "options The combination of caller specified options AND enforced options."
        }
      },
      "constructor": {
        "params": {
          "_config": "The configuration parameters for the OFT.",
          "_delegate": "The delegate capable of making OApp configurations inside of the endpoint.",
          "_lzEndpoint": "The LayerZero endpoint address.",
          "_name": "The name of the OFT.",
          "_principalToken": "The principalToken address.",
          "_symbol": "The symbol of the OFT."
        }
      },
      "decimals()": {
        "details": "Returns the number of decimals used to get its user representation. For example, if `decimals` equals `2`, a balance of `505` tokens should be displayed to a user as `5.05` (`505 / 10 ** 2`). Tokens usually opt for a value of 18, imitating the relationship between Ether and Wei. This is the default value returned by this function, unless it's overridden. NOTE: This information is only used for _display_ purposes: it in no way affects any of the arithmetic of the contract, including {IERC20-balanceOf} and {IERC20-transfer}."
      },
      "getFeesRecipient()": {
        "details": "The recipient receives the principalToken fees."
      },
      "getNetMintedAmount()": {
        "details": "If amount < 0, it means that more tokens were burned than minted."
      },
      "isComposeMsgSender((uint32,bytes32,uint64),bytes,address)": {
        "details": "_origin The origin information containing the source endpoint and sender address.  - srcEid: The source chain endpoint ID.  - sender: The sender address on the src chain.  - nonce: The nonce of the message._message The lzReceive payload.Applications can optionally choose to implement separate composeMsg senders that are NOT the bridging layer.The default sender IS the OAppReceiver implementer.",
        "params": {
          "_sender": "The sender address."
        },
        "returns": {
          "_0": "isSender Is a valid sender."
        }
      },
      "isPeer(uint32,bytes32)": {
        "details": "Check if the peer is considered 'trusted' by the OApp.Enables OAppPreCrimeSimulator to check whether a potential Inbound Packet is from a trusted source.",
        "params": {
          "_eid": "The endpoint ID to check.",
          "_peer": "The peer to check."
        },
        "returns": {
          "_0": "Whether the peer passed is considered 'trusted' by the OApp."
        }
      },
      "lzReceive((uint32,bytes32,uint64),bytes32,bytes,address,bytes)": {
        "details": "Entry point for receiving messages or packets from the endpoint.Entry point for receiving msg/packet from the LayerZero endpoint.",
        "params": {
          "_executor": "The address of the executor for the received message.",
          "_extraData": "Additional arbitrary data provided by the corresponding executor.",
          "_guid": "The unique identifier for the received LayerZero message.",
          "_message": "The payload of the received message.",
          "_origin": "The origin information containing the source endpoint and sender address.  - srcEid: The source chain endpoint ID.  - sender: The sender address on the src chain.  - nonce: The nonce of the message."
        }
      },
      "lzReceiveAndRevert(((uint32,bytes32,uint64),uint32,address,bytes32,uint256,address,bytes,bytes)[])": {
        "details": "Interface for pre-crime simulations. Always reverts at the end with the simulation results.WARNING: MUST revert at the end with the simulation results.Gives the preCrime implementation the ability to mock sending packets to the lzReceive function, WITHOUT actually executing them.",
        "params": {
          "_packets": "An array of InboundPacket objects representing received packets to be delivered."
        }
      },
      "lzReceiveSimulate((uint32,bytes32,uint64),bytes32,bytes,address,bytes)": {
        "details": "Is effectively an internal function because msg.sender must be address(this). Allows resetting the call stack for 'internal' calls.",
        "params": {
          "_executor": "The executor address for the packet.",
          "_extraData": "Additional data for the packet.",
          "_guid": "The unique identifier of the packet.",
          "_message": "The message payload of the packet.",
          "_origin": "The origin information containing the source endpoint and sender address.  - srcEid: The source chain endpoint ID.  - sender: The sender address on the src chain.  - nonce: The nonce of the message."
        }
      },
      "name()": {
        "details": "Returns the name of the token."
      },
      "nextNonce(uint32,bytes32)": {
        "details": "_srcEid The source endpoint ID._sender The sender address.The path nonce starts from 1. If 0 is returned it means that there is NO nonce ordered enforcement.Is required by the off-chain executor to determine the OApp expects msg execution is ordered.This is also enforced by the OApp.By default this is NOT enabled. ie. nextNonce is hardcoded to return 0.",
        "returns": {
          "nonce": "The next nonce."
        }
      },
      "oApp()": {
        "details": "Retrieves the address of the OApp contract.The simulator contract is the base contract for the OApp by default.If the simulator is a separate contract, override this function.",
        "returns": {
          "_0": "The address of the OApp contract."
        }
      },
      "oAppVersion()": {
        "returns": {
          "receiverVersion": "The version of the OAppReceiver.sol implementation.",
          "senderVersion": "The version of the OAppSender.sol implementation."
        }
      },
      "oftVersion()": {
        "details": "interfaceId: This specific interface ID is '0x02e49c2c'.version: Indicates a cross-chain compatible msg encoding with other OFTs.If a new feature is added to the OFT cross-chain msg encoding, the version will be incremented. ie. localOFT version(x,1) CAN send messages to remoteOFT version(x,1)",
        "returns": {
          "interfaceId": "The interface ID.",
          "version": "The version."
        }
      },
      "owner()": {
        "details": "Returns the address of the current owner."
      },
      "pause()": {
        "details": "This function can only be called by the owner"
      },
      "paused()": {
        "details": "Returns true if the contract is paused, and false otherwise."
      },
      "quoteOFT((uint32,bytes32,uint256,uint256,bytes,bytes,bytes))": {
        "params": {
          "_sendParam": "The parameters for the send operation."
        },
        "returns": {
          "oftFeeDetails": "The details of OFT fees.",
          "oftLimit": "The OFT limit information.",
          "oftReceipt": "The OFT receipt information."
        }
      },
      "quoteSend((uint32,bytes32,uint256,uint256,bytes,bytes,bytes),bool)": {
        "details": "MessagingFee: LayerZero msg fee  - nativeFee: The native fee.  - lzTokenFee: The lzToken fee.",
        "params": {
          "_payInLzToken": "Flag indicating whether the caller is paying in the LZ token.",
          "_sendParam": "The parameters for the send() operation."
        },
        "returns": {
          "msgFee": "The calculated LayerZero messaging fee from the send() operation."
        }
      },
      "renounceOwnership()": {
        "details": "Leaves the contract without owner. It will not be possible to call `onlyOwner` functions. Can only be called by the current owner. NOTE: Renouncing ownership will leave the contract without an owner, thereby disabling any functionality that is only available to the owner."
      },
      "send((uint32,bytes32,uint256,uint256,bytes,bytes,bytes),(uint256,uint256),address)": {
        "details": "MessagingReceipt: LayerZero msg receipt  - guid: The unique identifier for the sent message.  - nonce: The nonce of the sent message.  - fees: The LayerZero fees incurred for the message.",
        "params": {
          "_fee": "The calculated fees for the send() operation.      - nativeFee: The native fees.      - lzTokenFee: The lzToken fees.",
          "_refundAddress": "The address to receive any excess funds.",
          "_sendParam": "The parameters for the send operation."
        },
        "returns": {
          "msgReceipt": "The receipt for the send operation.",
          "oftReceipt": "The OFT receipt information."
        }
      },
      "setBurnDailyLimit(uint256)": {
        "params": {
          "_burnDailyLimit": "The daily limit of principalToken burnable."
        }
      },
      "setDelegate(address)": {
        "details": "Only the owner/admin of the OApp can call this function.Provides the ability for a delegate to set configs, on behalf of the OApp, directly on the Endpoint contract.",
        "params": {
          "_delegate": "The address of the delegate to be set."
        }
      },
      "setEnforcedOptions((uint32,uint16,bytes)[])": {
        "details": "Sets the enforced options for specific endpoint and message type combinations.Only the owner/admin of the OApp can call this function.Provides a way for the OApp to enforce things like paying for PreCrime, AND/OR minimum dst lzReceive gas amounts etc.These enforced options can vary as the potential options/execution on the remote may differ as per the msgType. eg. Amount of lzReceive() gas necessary to deliver a lzCompose() message adds overhead you dont want to pay if you are only making a standard LayerZero message ie. lzReceive() WITHOUT sendCompose().",
        "params": {
          "_enforcedOptions": "An array of EnforcedOptionParam structures specifying enforced options."
        }
      },
      "setFeesRate(uint16)": {
        "details": "The fees rate in basic point with a maximum of 10% (10_00 in bp)",
        "params": {
          "_newFeesRate": "The new fees rate in basic point."
        }
      },
      "setFeesRecipient(address)": {
        "params": {
          "_newFeesRecipient": "The new fees recipient address."
        }
      },
      "setGlobalBurnLimit(uint256)": {
        "params": {
          "_globalBurnLimit": "The max limit of principalToken burnable."
        }
      },
      "setGlobalMintLimit(uint256)": {
        "params": {
          "_globalMintLimit": "The max limit of principalToken mintable."
        }
      },
      "setMintDailyLimit(uint256)": {
        "params": {
          "_mintDailyLimit": "The daily limit of principalToken mintable."
        }
      },
      "setMsgInspector(address)": {
        "details": "Sets the message inspector address for the OFT.This is an optional contract that can be used to inspect both 'message' and 'options'.Set it to address(0) to disable it, or set it to a contract address to enable it.",
        "params": {
          "_msgInspector": "The address of the message inspector."
        }
      },
      "setPeer(uint32,bytes32)": {
        "details": "Only the owner/admin of the OApp can call this function.Indicates that the peer is trusted to send LayerZero messages to this OApp.Set this to bytes32(0) to remove the peer address.Peer is a bytes32 to accommodate non-evm chains.",
        "params": {
          "_eid": "The endpoint ID.",
          "_peer": "The address of the peer to be associated with the corresponding endpoint."
        }
      },
      "setPreCrime(address)": {
        "details": "Sets the preCrime contract address.",
        "params": {
          "_preCrime": "The address of the preCrime contract."
        }
      },
      "sharedDecimals()": {
        "details": "Retrieves the shared decimals of the OFT.Sets an implicit cap on the amount of tokens, over uint64.max() will need some sort of outbound cap / totalSupply cap Lowest common decimal denominator between chains. Defaults to 6 decimal places to provide up to 18,446,744,073,709.551615 units (max uint64). For tokens exceeding this totalSupply(), they will need to override the sharedDecimals function with something smaller. ie. 4 sharedDecimals would be 1,844,674,407,370,955.1615",
        "returns": {
          "_0": "The shared decimals of the OFT."
        }
      },
      "swapLzTokenToPrincipalToken(uint256)": {
        "details": "when the user swap OFT token to principalToken, the OFT token will be burned and the principalToken will be minted.",
        "params": {
          "_amount": "The amount of OFT token to swap."
        }
      },
      "symbol()": {
        "details": "Returns the symbol of the token, usually a shorter version of the name."
      },
      "token()": {
        "details": "Retrieves the address of the underlying ERC20 implementation.In the case of OFT, address(this) and erc20 are the same contract.",
        "returns": {
          "_0": "The address of the OFT token."
        }
      },
      "totalSupply()": {
        "details": "See {IERC20-totalSupply}."
      },
      "transfer(address,uint256)": {
        "details": "See {IERC20-transfer}. Requirements: - `to` cannot be the zero address. - the caller must have a balance of at least `value`."
      },
      "transferFrom(address,address,uint256)": {
        "details": "See {IERC20-transferFrom}. Emits an {Approval} event indicating the updated allowance. This is not required by the EIP. See the note at the beginning of {ERC20}. NOTE: Does not update the allowance if the current allowance is the maximum `uint256`. Requirements: - `from` and `to` cannot be the zero address. - `from` must have a balance of at least `value`. - the caller must have allowance for ``from``'s tokens of at least `value`."
      },
      "transferOwnership(address)": {
        "details": "Transfers ownership of the contract to a new account (`newOwner`). Can only be called by the current owner."
      },
      "unpause()": {
        "details": "This function can only be called by the owner"
      }
    },
    "stateVariables": {
      "isIsolateMode": {
        "details": "If true, the bridge can't burn more tokens than it had minted (netMintedAmount > 0)."
      },
      "netMintedAmount": {
        "details": "If amount < 0, it means that more tokens were burned than minted."
      }
    },
    "title": "BridgeableToken",
    "version": 1
  },
  "userdoc": {
    "errors": {
      "AddressZero()": [
        {
          "notice": "Thrown when the address is zero."
        }
      ],
      "BurnDailyLimitReached()": [
        {
          "notice": "Thrown when the amount of token to bridge from the current chain exceed the daily limit."
        }
      ],
      "GlobalBurnLimitReached()": [
        {
          "notice": "Thrown when the amount of token to bridge from the current chain exceed the global limit allowed."
        }
      ],
      "GlobalLimitOverFlow()": [
        {
          "notice": "Thrown when the new globalLimit value exceed `MAX_GLOBAL_LIMIT`."
        }
      ],
      "InvalidMsgLength()": [
        {
          "notice": "Thrown when the msg length is invalid."
        }
      ],
      "IsolateModeLimitReach()": [
        {
          "notice": "Thrown when in isolate mode the amount to bridge exceed the total amount minted on the current chain."
        }
      ],
      "MaxFeesRateExceeded()": [
        {
          "notice": "Thrown when the new fees rate exceeds the maximum fees."
        }
      ],
      "MintLimitExceeded()": [
        {
          "notice": "Thrown when the amount of OFT token to withdraw in principalToken exceeds the limit."
        }
      ]
    },
    "events": {
      "BridgeableTokenReceived(bytes32,uint32,address,address,uint256,uint256,uint256)": {
        "notice": "Event emitted when tokens are received from the src chain to the dst chain."
      },
      "BridgeableTokenSent(bytes32,uint32,address,address,uint256,bool,uint256,uint256)": {
        "notice": "Event emitted when tokens are sent from the src chain to the dst chain."
      },
      "BurnableDailyLimitSet(uint256)": {
        "notice": "Event emitted when the burnable daily limit is set by the Owner."
      },
      "FeesRateSet(uint16)": {
        "notice": "Event emitted when the fees rate is set by the Owner."
      },
      "FeesRecipientSet(address)": {
        "notice": "Event emitted when the fees recipient is set by the Owner."
      },
      "GlobalBurnLimitSet(uint256)": {
        "notice": "Event emitted when the global burn limit is set by the Owner."
      },
      "GlobalMintLimitSet(uint256)": {
        "notice": "Event emitted when the global mint limit is set by the Owner."
      },
      "IsolateModeToggled(bool)": {
        "notice": "Event emitted when the isolate mode is toggled by the Owner."
      },
      "MintableDailyLimitSet(uint256)": {
        "notice": "Event emitted when the mintable daily limit is set by the Owner."
      },
      "OFTSwapped(address,uint256,uint256,uint256)": {
        "notice": "Event emitted when the caller swap OFT for principal tokens."
      }
    },
    "kind": "user",
    "methods": {
      "allowInitializePath((uint32,bytes32,uint64))": {
        "notice": "Checks if the path initialization is allowed based on the provided origin."
      },
      "approvalRequired()": {
        "notice": "Indicates whether the OFT contract requires approval of the 'token()' to send."
      },
      "combineOptions(uint32,uint16,bytes)": {
        "notice": "Combines options for a given endpoint and message type."
      },
      "constructor": {
        "notice": "Constructor for the OFT contract."
      },
      "endpoint()": {
        "notice": "Retrieves the LayerZero endpoint associated with the OApp."
      },
      "getBurnDailyLimit()": {
        "notice": "The burnable daily limit for the token."
      },
      "getCurrentBurnDailyUsage()": {
        "notice": "Retrieves the current daily usage of burned tokens."
      },
      "getCurrentMintDailyUsage()": {
        "notice": "Retrieves the current daily usage of minted tokens."
      },
      "getFeesRate()": {
        "notice": "The fees rate in basic point."
      },
      "getFeesRecipient()": {
        "notice": "The fees recipient address."
      },
      "getGlobalBurnLimit()": {
        "notice": "The burnable daily limit for the token."
      },
      "getGlobalMintLimit()": {
        "notice": "The global mint limit for the token."
      },
      "getIsIsolateMode()": {
        "notice": "Whether the `isIsolateMode` is enabled."
      },
      "getMaxBurnableAmount()": {
        "notice": "Retrieves the MAX amount of PrincipalToken burnable regarding limits."
      },
      "getMaxMintableAmount()": {
        "notice": "Retrieves the MAX amount of PrincipalToken mintable regarding limits."
      },
      "getMintDailyLimit()": {
        "notice": "The mintable daily limit for the token."
      },
      "getNetMintedAmount()": {
        "notice": "Retrieves the minted amount."
      },
      "getPrincipalToken()": {
        "notice": "The principalToken address."
      },
      "isComposeMsgSender((uint32,bytes32,uint64),bytes,address)": {
        "notice": "Indicates whether an address is an approved composeMsg sender to the Endpoint."
      },
      "nextNonce(uint32,bytes32)": {
        "notice": "Retrieves the next nonce for a given source endpoint and sender address."
      },
      "oAppVersion()": {
        "notice": "Retrieves the OApp version information."
      },
      "oftVersion()": {
        "notice": "Retrieves interfaceID and the version of the OFT."
      },
      "pause()": {
        "notice": "Allow owner to pause the contract"
      },
      "peers(uint32)": {
        "notice": "Retrieves the peer (OApp) associated with a corresponding endpoint."
      },
      "quoteOFT((uint32,bytes32,uint256,uint256,bytes,bytes,bytes))": {
        "notice": "Provides a quote for OFT-related operations."
      },
      "quoteSend((uint32,bytes32,uint256,uint256,bytes,bytes,bytes),bool)": {
        "notice": "Provides a quote for the send() operation."
      },
      "send((uint32,bytes32,uint256,uint256,bytes,bytes,bytes),(uint256,uint256),address)": {
        "notice": "Executes the send operation."
      },
      "setBurnDailyLimit(uint256)": {
        "notice": "Sets `_burnDailyLimit` as `burnDailyLimit` of daily amount of principalToken burnable."
      },
      "setDelegate(address)": {
        "notice": "Sets the delegate address for the OApp."
      },
      "setFeesRate(uint16)": {
        "notice": "Sets `_newFeesRate` as `feesRate` of the fees applied on principalToken mint."
      },
      "setFeesRecipient(address)": {
        "notice": "Sets `_newFeesRecipient` as `feesRecipient` of the fees."
      },
      "setGlobalBurnLimit(uint256)": {
        "notice": "Sets `_globalBurnLimit` as `globalBurnLimit` of max amount of principalToken burnable."
      },
      "setGlobalMintLimit(uint256)": {
        "notice": "Sets `_globalMintLimit` as `globalMintLimit` of max amount of principalToken mintable."
      },
      "setMintDailyLimit(uint256)": {
        "notice": "Sets `_mintDailyLimit` as `mintDailyLimit` of daily amount of principalToken mintable."
      },
      "setPeer(uint32,bytes32)": {
        "notice": "Sets the peer address (OApp instance) for a corresponding endpoint."
      },
      "swapLzTokenToPrincipalToken(uint256)": {
        "notice": "Allow user to swap OFT token to principalToken if the amount is within the mint limit."
      },
      "toggleIsolateMode()": {
        "notice": "Toggle `isIsolateMode` to enable/disable the isolation mode."
      },
      "unpause()": {
        "notice": "Allow owner to unpause the contract"
      }
    },
    "notice": "Contract that using OFT to bridge tokens between chains.",
    "version": 1
  },
  "storageLayout": {
    "storage": [
      {
        "astId": 3794,
        "contract": "contracts/tokens/BridgeableToken.sol:BridgeableToken",
        "label": "_owner",
        "offset": 0,
        "slot": "0",
        "type": "t_address"
      },
      {
        "astId": 64,
        "contract": "contracts/tokens/BridgeableToken.sol:BridgeableToken",
        "label": "peers",
        "offset": 0,
        "slot": "1",
        "type": "t_mapping(t_uint32,t_bytes32)"
      },
      {
        "astId": 2014,
        "contract": "contracts/tokens/BridgeableToken.sol:BridgeableToken",
        "label": "preCrime",
        "offset": 0,
        "slot": "2",
        "type": "t_address"
      },
      {
        "astId": 680,
        "contract": "contracts/tokens/BridgeableToken.sol:BridgeableToken",
        "label": "enforcedOptions",
        "offset": 0,
        "slot": "3",
        "type": "t_mapping(t_uint32,t_mapping(t_uint16,t_bytes_storage))"
      },
      {
        "astId": 982,
        "contract": "contracts/tokens/BridgeableToken.sol:BridgeableToken",
        "label": "msgInspector",
        "offset": 0,
        "slot": "4",
        "type": "t_address"
      },
      {
        "astId": 4093,
        "contract": "contracts/tokens/BridgeableToken.sol:BridgeableToken",
        "label": "_balances",
        "offset": 0,
        "slot": "5",
        "type": "t_mapping(t_address,t_uint256)"
      },
      {
        "astId": 4099,
        "contract": "contracts/tokens/BridgeableToken.sol:BridgeableToken",
        "label": "_allowances",
        "offset": 0,
        "slot": "6",
        "type": "t_mapping(t_address,t_mapping(t_address,t_uint256))"
      },
      {
        "astId": 4101,
        "contract": "contracts/tokens/BridgeableToken.sol:BridgeableToken",
        "label": "_totalSupply",
        "offset": 0,
        "slot": "7",
        "type": "t_uint256"
      },
      {
        "astId": 4103,
        "contract": "contracts/tokens/BridgeableToken.sol:BridgeableToken",
        "label": "_name",
        "offset": 0,
        "slot": "8",
        "type": "t_string_storage"
      },
      {
        "astId": 4105,
        "contract": "contracts/tokens/BridgeableToken.sol:BridgeableToken",
        "label": "_symbol",
        "offset": 0,
        "slot": "9",
        "type": "t_string_storage"
      },
      {
        "astId": 5426,
        "contract": "contracts/tokens/BridgeableToken.sol:BridgeableToken",
        "label": "_status",
        "offset": 0,
        "slot": "10",
        "type": "t_uint256"
      },
      {
        "astId": 5307,
        "contract": "contracts/tokens/BridgeableToken.sol:BridgeableToken",
        "label": "_paused",
        "offset": 0,
        "slot": "11",
        "type": "t_bool"
      },
      {
        "astId": 5810,
        "contract": "contracts/tokens/BridgeableToken.sol:BridgeableToken",
        "label": "isIsolateMode",
        "offset": 1,
        "slot": "11",
        "type": "t_bool"
      },
      {
        "astId": 5813,
        "contract": "contracts/tokens/BridgeableToken.sol:BridgeableToken",
        "label": "feesRecipient",
        "offset": 2,
        "slot": "11",
        "type": "t_address"
      },
      {
        "astId": 5816,
        "contract": "contracts/tokens/BridgeableToken.sol:BridgeableToken",
        "label": "feesRate",
        "offset": 22,
        "slot": "11",
        "type": "t_uint16"
      },
      {
        "astId": 5819,
        "contract": "contracts/tokens/BridgeableToken.sol:BridgeableToken",
        "label": "netMintedAmount",
        "offset": 0,
        "slot": "12",
        "type": "t_int256"
      },
      {
        "astId": 5822,
        "contract": "contracts/tokens/BridgeableToken.sol:BridgeableToken",
        "label": "mintDailyLimit",
        "offset": 0,
        "slot": "13",
        "type": "t_uint256"
      },
      {
        "astId": 5825,
        "contract": "contracts/tokens/BridgeableToken.sol:BridgeableToken",
        "label": "globalMintLimit",
        "offset": 0,
        "slot": "14",
        "type": "t_uint256"
      },
      {
        "astId": 5828,
        "contract": "contracts/tokens/BridgeableToken.sol:BridgeableToken",
        "label": "burnDailyLimit",
        "offset": 0,
        "slot": "15",
        "type": "t_uint256"
      },
      {
        "astId": 5831,
        "contract": "contracts/tokens/BridgeableToken.sol:BridgeableToken",
        "label": "globalBurnLimit",
        "offset": 0,
        "slot": "16",
        "type": "t_int256"
      },
      {
        "astId": 5836,
        "contract": "contracts/tokens/BridgeableToken.sol:BridgeableToken",
        "label": "mintDailyUsage",
        "offset": 0,
        "slot": "17",
        "type": "t_mapping(t_uint256,t_uint256)"
      },
      {
        "astId": 5841,
        "contract": "contracts/tokens/BridgeableToken.sol:BridgeableToken",
        "label": "burnDailyUsage",
        "offset": 0,
        "slot": "18",
        "type": "t_mapping(t_uint256,t_uint256)"
      }
    ],
    "types": {
      "t_address": {
        "encoding": "inplace",
        "label": "address",
        "numberOfBytes": "20"
      },
      "t_bool": {
        "encoding": "inplace",
        "label": "bool",
        "numberOfBytes": "1"
      },
      "t_bytes32": {
        "encoding": "inplace",
        "label": "bytes32",
        "numberOfBytes": "32"
      },
      "t_bytes_storage": {
        "encoding": "bytes",
        "label": "bytes",
        "numberOfBytes": "32"
      },
      "t_int256": {
        "encoding": "inplace",
        "label": "int256",
        "numberOfBytes": "32"
      },
      "t_mapping(t_address,t_mapping(t_address,t_uint256))": {
        "encoding": "mapping",
        "key": "t_address",
        "label": "mapping(address => mapping(address => uint256))",
        "numberOfBytes": "32",
        "value": "t_mapping(t_address,t_uint256)"
      },
      "t_mapping(t_address,t_uint256)": {
        "encoding": "mapping",
        "key": "t_address",
        "label": "mapping(address => uint256)",
        "numberOfBytes": "32",
        "value": "t_uint256"
      },
      "t_mapping(t_uint16,t_bytes_storage)": {
        "encoding": "mapping",
        "key": "t_uint16",
        "label": "mapping(uint16 => bytes)",
        "numberOfBytes": "32",
        "value": "t_bytes_storage"
      },
      "t_mapping(t_uint256,t_uint256)": {
        "encoding": "mapping",
        "key": "t_uint256",
        "label": "mapping(uint256 => uint256)",
        "numberOfBytes": "32",
        "value": "t_uint256"
      },
      "t_mapping(t_uint32,t_bytes32)": {
        "encoding": "mapping",
        "key": "t_uint32",
        "label": "mapping(uint32 => bytes32)",
        "numberOfBytes": "32",
        "value": "t_bytes32"
      },
      "t_mapping(t_uint32,t_mapping(t_uint16,t_bytes_storage))": {
        "encoding": "mapping",
        "key": "t_uint32",
        "label": "mapping(uint32 => mapping(uint16 => bytes))",
        "numberOfBytes": "32",
        "value": "t_mapping(t_uint16,t_bytes_storage)"
      },
      "t_string_storage": {
        "encoding": "bytes",
        "label": "string",
        "numberOfBytes": "32"
      },
      "t_uint16": {
        "encoding": "inplace",
        "label": "uint16",
        "numberOfBytes": "2"
      },
      "t_uint256": {
        "encoding": "inplace",
        "label": "uint256",
        "numberOfBytes": "32"
      },
      "t_uint32": {
        "encoding": "inplace",
        "label": "uint32",
        "numberOfBytes": "4"
      }
    }
  }
}